{
  "_format": "hh-sol-artifact-1",
  "contractName": "DSponsorNFTFactory",
  "sourceName": "contracts/DSponsorNFTFactory.sol",
  "abi": [
    {
      "inputs": [
        {
          "internalType": "string",
          "name": "name",
          "type": "string"
        },
        {
          "internalType": "string",
          "name": "symbol",
          "type": "string"
        },
        {
          "internalType": "uint256",
          "name": "maxSupply",
          "type": "uint256"
        },
        {
          "internalType": "address",
          "name": "controller",
          "type": "address"
        },
        {
          "internalType": "address payable",
          "name": "treasury",
          "type": "address"
        }
      ],
      "name": "createDSponsorNFT",
      "outputs": [
        {
          "internalType": "address",
          "name": "",
          "type": "address"
        }
      ],
      "stateMutability": "nonpayable",
      "type": "function"
    }
  ],
  "bytecode": "0x608060405234801561001057600080fd5b50612f37806100206000396000f3fe608060405234801561001057600080fd5b506004361061002b5760003560e01c8063f4c0a68714610030575b600080fd5b61004361003e36600461016f565b61005f565b6040516001600160a01b03909116815260200160405180910390f35b60008585858585604051610072906100a7565b610080959493929190610251565b604051809103906000f08015801561009c573d6000803e3d6000fd5b509695505050505050565b612c638061029f83390190565b634e487b7160e01b600052604160045260246000fd5b600082601f8301126100db57600080fd5b813567ffffffffffffffff808211156100f6576100f66100b4565b604051601f8301601f19908116603f0116810190828211818310171561011e5761011e6100b4565b8160405283815286602085880101111561013757600080fd5b836020870160208301376000602085830101528094505050505092915050565b6001600160a01b038116811461016c57600080fd5b50565b600080600080600060a0868803121561018757600080fd5b853567ffffffffffffffff8082111561019f57600080fd5b6101ab89838a016100ca565b965060208801359150808211156101c157600080fd5b506101ce888289016100ca565b9450506040860135925060608601356101e681610157565b915060808601356101f681610157565b809150509295509295909350565b6000815180845260005b8181101561022a5760208185018101518683018201520161020e565b8181111561023c576000602083870101525b50601f01601f19169290920160200192915050565b60a08152600061026460a0830188610204565b82810360208401526102768188610204565b604084019690965250506001600160a01b03928316606082015291166080909101529291505056fe610120604052600060e0819052610100819052600d805460ff19169055600e553480156200002c57600080fd5b5060405162002c6338038062002c638339810160408190526200004f91620002a2565b8451859085906200006890600290602085019062000116565b5080516200007e90600390602084019062000116565b505060016008555082620000a557604051633d823b6160e01b815260040160405180910390fd5b6001600160a01b038216620000cd57604051631e7d738760e21b815260040160405180910390fd5b6001600160a01b038116620000f557604051631e7d738760e21b815260040160405180910390fd5b6080929092526001600160a01b0390811660c0521660a052506200037f9050565b828054620001249062000342565b90600052602060002090601f01602090048101928262000148576000855562000193565b82601f106200016357805160ff191683800117855562000193565b8280016001018555821562000193579182015b828111156200019357825182559160200191906001019062000176565b50620001a1929150620001a5565b5090565b5b80821115620001a15760008155600101620001a6565b634e487b7160e01b600052604160045260246000fd5b600082601f830112620001e457600080fd5b81516001600160401b0380821115620002015762000201620001bc565b604051601f8301601f19908116603f011681019082821181831017156200022c576200022c620001bc565b816040528381526020925086838588010111156200024957600080fd5b600091505b838210156200026d57858201830151818301840152908201906200024e565b838211156200027f5760008385830101525b9695505050505050565b6001600160a01b03811681146200029f57600080fd5b50565b600080600080600060a08688031215620002bb57600080fd5b85516001600160401b0380821115620002d357600080fd5b620002e189838a01620001d2565b96506020880151915080821115620002f857600080fd5b506200030788828901620001d2565b945050604086015192506060860151620003218162000289565b6080870151909250620003348162000289565b809150509295509295909350565b600181811c908216806200035757607f821691505b602082108114156200037957634e487b7160e01b600052602260045260246000fd5b50919050565b60805160a05160c0516128596200040a6000396000818161039e0152818161066c0152818161089201528181610a6d01528181610ad201528181610fc8015261123b01526000818161036d0152818161041a01528181610e6501528181610ea701526112970152600081816103d40152818161046d015281816108ec01526117bf01526128596000f3fe6080604052600436106101e35760003560e01c806355f804b31161010257806395d89b4111610095578063cac9266911610064578063cac9266914610605578063e8a3d48514610625578063e985e9c51461063a578063ee0fc1211461065a57600080fd5b806395d89b4114610590578063a22cb465146105a5578063b88d4fde146105c5578063c87b56dd146105e557600080fd5b806370a08231116100d157806370a0823114610506578063725a82941461052657806383e7585914610539578063938e3d7b1461057057600080fd5b806355f804b314610491578063580ba903146104b15780636352211e146104d15780636c0360eb146104f157600080fd5b80632a55205a1161017a57806337929eb41161014957806337929eb4146103f65780633b19e84a1461040b57806342842e0e1461043e5780634c0f38c21461045e57600080fd5b80632a55205a1461031c5780632d2c55651461035b5780633018205f1461038f57806332cb6b0c146103c257600080fd5b80630e89341c116101b65780630e89341c14610299578063162094c4146102b957806318160ddd146102d957806323b872dd146102fc57600080fd5b806301ffc9a7146101e857806306fdde031461021d578063081812fc1461023f578063095ea7b314610277575b600080fd5b3480156101f457600080fd5b50610208610203366004612140565b61068e565b60405190151581526020015b60405180910390f35b34801561022957600080fd5b5061023261069f565b60405161021491906121b5565b34801561024b57600080fd5b5061025f61025a3660046121c8565b610731565b6040516001600160a01b039091168152602001610214565b34801561028357600080fd5b506102976102923660046121fd565b610758565b005b3480156102a557600080fd5b506102326102b43660046121c8565b610885565b3480156102c557600080fd5b506102976102d4366004612269565b610890565b3480156102e557600080fd5b506102ee61094b565b604051908152602001610214565b34801561030857600080fd5b506102976103173660046122b5565b61095b565b34801561032857600080fd5b5061033c6103373660046122f1565b610993565b604080516001600160a01b039093168352602083019190915201610214565b34801561036757600080fd5b5061025f7f000000000000000000000000000000000000000000000000000000000000000081565b34801561039b57600080fd5b507f000000000000000000000000000000000000000000000000000000000000000061025f565b3480156103ce57600080fd5b506102ee7f000000000000000000000000000000000000000000000000000000000000000081565b34801561040257600080fd5b50610232610a41565b34801561041757600080fd5b507f000000000000000000000000000000000000000000000000000000000000000061025f565b34801561044a57600080fd5b506102976104593660046122b5565b610a50565b34801561046a57600080fd5b507f00000000000000000000000000000000000000000000000000000000000000006102ee565b34801561049d57600080fd5b506102976104ac366004612313565b610a6b565b3480156104bd57600080fd5b506102976104cc366004612363565b610ad0565b3480156104dd57600080fd5b5061025f6104ec3660046121c8565b610bea565b3480156104fd57600080fd5b50610232610c4a565b34801561051257600080fd5b506102ee6105213660046123a2565b610cd8565b6102976105343660046123bd565b610d5e565b34801561054557600080fd5b506105596105543660046123a2565b610f67565b604080519215158352602083019190915201610214565b34801561057c57600080fd5b5061029761058b366004612313565b610fc6565b34801561059c57600080fd5b5061023261102b565b3480156105b157600080fd5b506102976105c036600461241e565b61103a565b3480156105d157600080fd5b506102976105e036600461246b565b611050565b3480156105f157600080fd5b506102326106003660046121c8565b611089565b34801561061157600080fd5b50610297610620366004612547565b611239565b34801561063157600080fd5b506102326112bf565b34801561064657600080fd5b50610208610655366004612570565b6112cc565b34801561066657600080fd5b5061025f7f000000000000000000000000000000000000000000000000000000000000000081565b600061069982611338565b92915050565b6060600280546106ae906125a3565b80601f01602080910402602001604051908101604052809291908181526020018280546106da906125a3565b80156107275780601f106106fc57610100808354040283529160200191610727565b820191906000526020600020905b81548152906001019060200180831161070a57829003601f168201915b5050505050905090565b600061073c82611378565b506000908152600660205260409020546001600160a01b031690565b600061076382610bea565b9050806001600160a01b0316836001600160a01b031614156107d65760405162461bcd60e51b815260206004820152602160248201527f4552433732313a20617070726f76616c20746f2063757272656e74206f776e656044820152603960f91b60648201526084015b60405180910390fd5b806001600160a01b03166107e86113d7565b6001600160a01b031614806108045750610804816106556113d7565b6108765760405162461bcd60e51b815260206004820152603e60248201527f4552433732313a20617070726f76652063616c6c6572206973206e6f7420746f60448201527f6b656e206f776e6572206e6f7220617070726f76656420666f7220616c6c000060648201526084016107cd565b61088083836113e1565b505050565b606061069982611089565b7f00000000000000000000000000000000000000000000000000000000000000006001600160a01b03166108c26113d7565b6001600160a01b0316146108e9576040516346e03aa360e01b815260040160405180910390fd5b827f00000000000000000000000000000000000000000000000000000000000000001161092c5760405163ed15e6cf60e01b8152600481018490526024016107cd565b6000838152600b60205260409020610945908383612091565b50505050565b6000610956600c5490565b905090565b61096c6109666113d7565b8261144f565b6109885760405162461bcd60e51b81526004016107cd906125de565b6108808383836114ad565b60008281526001602090815260408083208151808301909252546001600160a01b038116808352600160a01b9091046001600160601b0316928201929092528291610a085750604080518082019091526000546001600160a01b0381168252600160a01b90046001600160601b031660208201525b602081015160009061271090610a27906001600160601b031687612642565b610a319190612677565b91519350909150505b9250929050565b6060600980546106ae906125a3565b61088083838360405180602001604052806000815250611050565b7f00000000000000000000000000000000000000000000000000000000000000006001600160a01b0316610a9d6113d7565b6001600160a01b031614610ac4576040516346e03aa360e01b815260040160405180910390fd5b610880600a8383612091565b7f00000000000000000000000000000000000000000000000000000000000000006001600160a01b0316610b026113d7565b6001600160a01b031614610b29576040516346e03aa360e01b815260040160405180910390fd5b6001600160a01b03831615610b8057604080518082018252831515815260208082018481526001600160a01b0387166000908152600f9092529290209051815460ff19169015151781559051600190910155610bab565b604080518082019091528215158082526020909101829052600d805460ff19169091179055600e8190555b80821515846001600160a01b03167ff2ec40995a395fdc03adea87f463b3ed8e70e91f5b2eef24f4d6bdb300f0432460405160405180910390a4505050565b6000818152600460205260408120546001600160a01b0316806106995760405162461bcd60e51b8152602060048201526018602482015277115490cdcc8c4e881a5b9d985b1a59081d1bdad95b88125160421b60448201526064016107cd565b600a8054610c57906125a3565b80601f0160208091040260200160405190810160405280929190818152602001828054610c83906125a3565b8015610cd05780601f10610ca557610100808354040283529160200191610cd0565b820191906000526020600020905b815481529060010190602001808311610cb357829003601f168201915b505050505081565b60006001600160a01b038216610d425760405162461bcd60e51b815260206004820152602960248201527f4552433732313a2061646472657373207a65726f206973206e6f7420612076616044820152683634b21037bbb732b960b91b60648201526084016107cd565b506001600160a01b031660009081526005602052604090205490565b60026008541415610db15760405162461bcd60e51b815260206004820152601f60248201527f5265656e7472616e637947756172643a207265656e7472616e742063616c6c0060448201526064016107cd565b60026008556001600160a01b038316610ddd57604051631e7d738760e21b815260040160405180910390fd5b600080610de986610f67565b9150915081610e1657604051633c9b6add60e21b81526001600160a01b03871660048201526024016107cd565b6001600160a01b038616158015610e2c57508034105b15610e4c57604051635cfd20c360e01b81523460048201526024016107cd565b8015610ecc576001600160a01b038616610e8f57610e8a7f000000000000000000000000000000000000000000000000000000000000000082611649565b610ecc565b610ecc610e9a6113d7565b6001600160a01b038816907f000000000000000000000000000000000000000000000000000000000000000084611762565b6000610ed661094b565b9050610ee286826117bc565b8484604051610ef292919061268b565b604051809103902082886001600160a01b03167f9ce6c39405d3919a047feae8890097cb9d2827668d35c75de56d2287fe32377589610f2f6113d7565b604080516001600160a01b039384168152929091166020830152810186905260600160405180910390a4505060016008555050505050565b600080806001600160a01b038416610f8057600d610f99565b6001600160a01b0384166000908152600f602052604090205b60408051808201909152815460ff1615158082526001909201546020909101819052909590945092505050565b7f00000000000000000000000000000000000000000000000000000000000000006001600160a01b0316610ff86113d7565b6001600160a01b03161461101f576040516346e03aa360e01b815260040160405180910390fd5b61088060098383612091565b6060600380546106ae906125a3565b61104c6110456113d7565b8383611814565b5050565b61106161105b6113d7565b8361144f565b61107d5760405162461bcd60e51b81526004016107cd906125de565b610945848484846118e3565b606061109482611378565b6000828152600b6020526040812080546110ad906125a3565b80601f01602080910402602001604051908101604052809291908181526020018280546110d9906125a3565b80156111265780601f106110fb57610100808354040283529160200191611126565b820191906000526020600020905b81548152906001019060200180831161110957829003601f168201915b505050505090506000600a805461113c906125a3565b80601f0160208091040260200160405190810160405280929190818152602001828054611168906125a3565b80156111b55780601f1061118a576101008083540402835291602001916111b5565b820191906000526020600020905b81548152906001019060200180831161119857829003601f168201915b505050505090508051600014156111ec578151156111d357816111e4565b604051806020016040528060008152505b949350505050565b81511561121e57808260405160200161120692919061269b565b60405160208183030381529060405292505050919050565b8061122885611916565b60405160200161120692919061269b565b7f00000000000000000000000000000000000000000000000000000000000000006001600160a01b031661126b6113d7565b6001600160a01b031614611292576040516346e03aa360e01b815260040160405180910390fd5b6112bc7f000000000000000000000000000000000000000000000000000000000000000082611a14565b50565b60098054610c57906125a3565b60004660891480156112fa57506001600160a01b0382167358807bad0b376efc12f5ad86aac70e78ed67deae145b1561130757506001610699565b6001600160a01b0380841660009081526007602090815260408083209386168352929052205460ff165b9392505050565b60006001600160e01b031982166380ac58cd60e01b148061136957506001600160e01b03198216635b5e139f60e01b145b80610699575061069982611b11565b6000818152600460205260409020546001600160a01b03166112bc5760405162461bcd60e51b8152602060048201526018602482015277115490cdcc8c4e881a5b9d985b1a59081d1bdad95b88125160421b60448201526064016107cd565b6000610956611b46565b600081815260066020526040902080546001600160a01b0319166001600160a01b038416908117909155819061141682610bea565b6001600160a01b03167f8c5be1e5ebec7d5bd14f71427d1e84f3dd0314c0f7b2291e5b200ac8c7c3b92560405160405180910390a45050565b60008061145b83610bea565b9050806001600160a01b0316846001600160a01b03161480611482575061148281856112cc565b806111e45750836001600160a01b031661149b84610731565b6001600160a01b031614949350505050565b826001600160a01b03166114c082610bea565b6001600160a01b0316146115245760405162461bcd60e51b815260206004820152602560248201527f4552433732313a207472616e736665722066726f6d20696e636f72726563742060448201526437bbb732b960d91b60648201526084016107cd565b6001600160a01b0382166115865760405162461bcd60e51b8152602060048201526024808201527f4552433732313a207472616e7366657220746f20746865207a65726f206164646044820152637265737360e01b60648201526084016107cd565b6115916000826113e1565b6001600160a01b03831660009081526005602052604081208054600192906115ba9084906126ca565b90915550506001600160a01b03821660009081526005602052604081208054600192906115e89084906126e1565b909155505060008181526004602052604080822080546001600160a01b0319166001600160a01b0386811691821790925591518493918716917fddf252ad1be2c89b69c2b068fc378daa952ba7f163c4a11628f55a4df523b3ef91a4505050565b804710156116995760405162461bcd60e51b815260206004820152601d60248201527f416464726573733a20696e73756666696369656e742062616c616e636500000060448201526064016107cd565b6000826001600160a01b03168260405160006040518083038185875af1925050503d80600081146116e6576040519150601f19603f3d011682016040523d82523d6000602084013e6116eb565b606091505b50509050806108805760405162461bcd60e51b815260206004820152603a60248201527f416464726573733a20756e61626c6520746f2073656e642076616c75652c207260448201527f6563697069656e74206d6179206861766520726576657274656400000000000060648201526084016107cd565b604080516001600160a01b0385811660248301528416604482015260648082018490528251808303909101815260849091019091526020810180516001600160e01b03166323b872dd60e01b179052610945908590611ba3565b807f0000000000000000000000000000000000000000000000000000000000000000116117fc57604051638a164f6360e01b815260040160405180910390fd5b6118068282611c75565b61104c600c80546001019055565b816001600160a01b0316836001600160a01b031614156118765760405162461bcd60e51b815260206004820152601960248201527f4552433732313a20617070726f766520746f2063616c6c65720000000000000060448201526064016107cd565b6001600160a01b03838116600081815260076020908152604080832094871680845294825291829020805460ff191686151590811790915591519182527f17307eab39ab6107e8899845ad3d59bd9653f200f220920489ca2b5937696c31910160405180910390a3505050565b6118ee8484846114ad565b6118fa84848484611c8f565b6109455760405162461bcd60e51b81526004016107cd906126f9565b60608161193a5750506040805180820190915260018152600360fc1b602082015290565b8160005b8115611964578061194e8161274b565b915061195d9050600a83612677565b915061193e565b60008167ffffffffffffffff81111561197f5761197f612455565b6040519080825280601f01601f1916602001820160405280156119a9576020820181803683370190505b5090505b84156111e4576119be6001836126ca565b91506119cb600a86612766565b6119d69060306126e1565b60f81b8183815181106119eb576119eb61277a565b60200101906001600160f81b031916908160001a905350611a0d600a86612677565b94506119ad565b6127106001600160601b0382161115611a825760405162461bcd60e51b815260206004820152602a60248201527f455243323938313a20726f79616c7479206665652077696c6c206578636565646044820152692073616c65507269636560b01b60648201526084016107cd565b6001600160a01b038216611ad85760405162461bcd60e51b815260206004820152601960248201527f455243323938313a20696e76616c69642072656365697665720000000000000060448201526064016107cd565b604080518082019091526001600160a01b039092168083526001600160601b039091166020909201829052600160a01b90910217600055565b60006001600160e01b0319821663152a902d60e11b148061069957506301ffc9a760e01b6001600160e01b0319831614610699565b600033301415611b9d57600080368080601f0160208091040260200160405190810160405280939291908181526020018383808284376000920191909152505050503601516001600160a01b03169150611ba09050565b50335b90565b6000611bf8826040518060400160405280602081526020017f5361666545524332303a206c6f772d6c6576656c2063616c6c206661696c6564815250856001600160a01b0316611da39092919063ffffffff16565b8051909150156108805780806020019051810190611c169190612790565b6108805760405162461bcd60e51b815260206004820152602a60248201527f5361666545524332303a204552433230206f7065726174696f6e20646964206e6044820152691bdd081cdd58d8d9595960b21b60648201526084016107cd565b61104c828260405180602001604052806000815250611db2565b60006001600160a01b0384163b15611d9857836001600160a01b031663150b7a02611cb86113d7565b8786866040518563ffffffff1660e01b8152600401611cda94939291906127ad565b602060405180830381600087803b158015611cf457600080fd5b505af1925050508015611d24575060408051601f3d908101601f19168201909252611d21918101906127ea565b60015b611d7e573d808015611d52576040519150601f19603f3d011682016040523d82523d6000602084013e611d57565b606091505b508051611d765760405162461bcd60e51b81526004016107cd906126f9565b805181602001fd5b6001600160e01b031916630a85bd0160e11b1490506111e4565b506001949350505050565b60606111e48484600085611de5565b611dbc8383611f16565b611dc96000848484611c8f565b6108805760405162461bcd60e51b81526004016107cd906126f9565b606082471015611e465760405162461bcd60e51b815260206004820152602660248201527f416464726573733a20696e73756666696369656e742062616c616e636520666f6044820152651c8818d85b1b60d21b60648201526084016107cd565b6001600160a01b0385163b611e9d5760405162461bcd60e51b815260206004820152601d60248201527f416464726573733a2063616c6c20746f206e6f6e2d636f6e747261637400000060448201526064016107cd565b600080866001600160a01b03168587604051611eb99190612807565b60006040518083038185875af1925050503d8060008114611ef6576040519150601f19603f3d011682016040523d82523d6000602084013e611efb565b606091505b5091509150611f0b828286612058565b979650505050505050565b6001600160a01b038216611f6c5760405162461bcd60e51b815260206004820181905260248201527f4552433732313a206d696e7420746f20746865207a65726f206164647265737360448201526064016107cd565b6000818152600460205260409020546001600160a01b031615611fd15760405162461bcd60e51b815260206004820152601c60248201527f4552433732313a20746f6b656e20616c7265616479206d696e7465640000000060448201526064016107cd565b6001600160a01b0382166000908152600560205260408120805460019290611ffa9084906126e1565b909155505060008181526004602052604080822080546001600160a01b0319166001600160a01b03861690811790915590518392907fddf252ad1be2c89b69c2b068fc378daa952ba7f163c4a11628f55a4df523b3ef908290a45050565b60608315612067575081611331565b8251156120775782518084602001fd5b8160405162461bcd60e51b81526004016107cd91906121b5565b82805461209d906125a3565b90600052602060002090601f0160209004810192826120bf5760008555612105565b82601f106120d85782800160ff19823516178555612105565b82800160010185558215612105579182015b828111156121055782358255916020019190600101906120ea565b50612111929150612115565b5090565b5b808211156121115760008155600101612116565b6001600160e01b0319811681146112bc57600080fd5b60006020828403121561215257600080fd5b81356113318161212a565b60005b83811015612178578181015183820152602001612160565b838111156109455750506000910152565b600081518084526121a181602086016020860161215d565b601f01601f19169290920160200192915050565b6020815260006113316020830184612189565b6000602082840312156121da57600080fd5b5035919050565b80356001600160a01b03811681146121f857600080fd5b919050565b6000806040838503121561221057600080fd5b612219836121e1565b946020939093013593505050565b60008083601f84011261223957600080fd5b50813567ffffffffffffffff81111561225157600080fd5b602083019150836020828501011115610a3a57600080fd5b60008060006040848603121561227e57600080fd5b83359250602084013567ffffffffffffffff81111561229c57600080fd5b6122a886828701612227565b9497909650939450505050565b6000806000606084860312156122ca57600080fd5b6122d3846121e1565b92506122e1602085016121e1565b9150604084013590509250925092565b6000806040838503121561230457600080fd5b50508035926020909101359150565b6000806020838503121561232657600080fd5b823567ffffffffffffffff81111561233d57600080fd5b61234985828601612227565b90969095509350505050565b80151581146112bc57600080fd5b60008060006060848603121561237857600080fd5b612381846121e1565b9250602084013561239181612355565b929592945050506040919091013590565b6000602082840312156123b457600080fd5b611331826121e1565b600080600080606085870312156123d357600080fd5b6123dc856121e1565b93506123ea602086016121e1565b9250604085013567ffffffffffffffff81111561240657600080fd5b61241287828801612227565b95989497509550505050565b6000806040838503121561243157600080fd5b61243a836121e1565b9150602083013561244a81612355565b809150509250929050565b634e487b7160e01b600052604160045260246000fd5b6000806000806080858703121561248157600080fd5b61248a856121e1565b9350612498602086016121e1565b925060408501359150606085013567ffffffffffffffff808211156124bc57600080fd5b818701915087601f8301126124d057600080fd5b8135818111156124e2576124e2612455565b604051601f8201601f19908116603f0116810190838211818310171561250a5761250a612455565b816040528281528a602084870101111561252357600080fd5b82602086016020830137600060208483010152809550505050505092959194509250565b60006020828403121561255957600080fd5b81356001600160601b038116811461133157600080fd5b6000806040838503121561258357600080fd5b61258c836121e1565b915061259a602084016121e1565b90509250929050565b600181811c908216806125b757607f821691505b602082108114156125d857634e487b7160e01b600052602260045260246000fd5b50919050565b6020808252602e908201527f4552433732313a2063616c6c6572206973206e6f7420746f6b656e206f776e6560408201526d1c881b9bdc88185c1c1c9bdd995960921b606082015260800190565b634e487b7160e01b600052601160045260246000fd5b600081600019048311821515161561265c5761265c61262c565b500290565b634e487b7160e01b600052601260045260246000fd5b60008261268657612686612661565b500490565b8183823760009101908152919050565b600083516126ad81846020880161215d565b8351908301906126c181836020880161215d565b01949350505050565b6000828210156126dc576126dc61262c565b500390565b600082198211156126f4576126f461262c565b500190565b60208082526032908201527f4552433732313a207472616e7366657220746f206e6f6e20455243373231526560408201527131b2b4bb32b91034b6b83632b6b2b73a32b960711b606082015260800190565b600060001982141561275f5761275f61262c565b5060010190565b60008261277557612775612661565b500690565b634e487b7160e01b600052603260045260246000fd5b6000602082840312156127a257600080fd5b815161133181612355565b6001600160a01b03858116825284166020820152604081018390526080606082018190526000906127e090830184612189565b9695505050505050565b6000602082840312156127fc57600080fd5b81516113318161212a565b6000825161281981846020870161215d565b919091019291505056fea264697066735822122074d197d081c046d50f2415fb97a984068f31a499a06452d7fae734798f39bf0464736f6c63430008090033a26469706673582212207782129ac70c97625a5a394266a580852629cb73fd158b2d8fcdd9510a01220764736f6c63430008090033",
  "linkReferences": {},
  "deployedLinkReferences": {}
}