{
  "_format": "hh-sol-artifact-1",
  "contractName": "DSponsorMain",
  "sourceName": "contracts/DSponsor_Main.sol",
  "abi": [
    {
      "anonymous": false,
      "inputs": [
        {
          "indexed": true,
          "internalType": "address",
          "name": "dSponsorAddress",
          "type": "address"
        },
        {
          "indexed": true,
          "internalType": "address",
          "name": "sponsee",
          "type": "address"
        },
        {
          "indexed": true,
          "internalType": "address",
          "name": "nftContract",
          "type": "address"
        },
        {
          "indexed": false,
          "internalType": "bool",
          "name": "nftIsFromDSponsorFactory",
          "type": "bool"
        }
      ],
      "name": "NewDSponsor",
      "type": "event"
    },
    {
      "anonymous": false,
      "inputs": [
        {
          "indexed": true,
          "internalType": "address",
          "name": "dSponsorNFTAddress",
          "type": "address"
        },
        {
          "indexed": true,
          "internalType": "address",
          "name": "beneficiary",
          "type": "address"
        },
        {
          "indexed": true,
          "internalType": "address",
          "name": "treasury",
          "type": "address"
        }
      ],
      "name": "NewDSponsorNFT",
      "type": "event"
    },
    {
      "inputs": [
        {
          "internalType": "string",
          "name": "name",
          "type": "string"
        },
        {
          "internalType": "string",
          "name": "symbol",
          "type": "string"
        },
        {
          "internalType": "uint256",
          "name": "maxSupply",
          "type": "uint256"
        },
        {
          "internalType": "address",
          "name": "controller",
          "type": "address"
        }
      ],
      "name": "createDSponsorNFT",
      "outputs": [
        {
          "internalType": "address",
          "name": "dSponsorNFTAddress",
          "type": "address"
        }
      ],
      "stateMutability": "nonpayable",
      "type": "function"
    },
    {
      "inputs": [
        {
          "internalType": "contract IERC721",
          "name": "ERC721Contract",
          "type": "address"
        },
        {
          "internalType": "string",
          "name": "rulesURI",
          "type": "string"
        },
        {
          "internalType": "address",
          "name": "sponsee",
          "type": "address"
        }
      ],
      "name": "createFromContract",
      "outputs": [],
      "stateMutability": "nonpayable",
      "type": "function"
    },
    {
      "inputs": [
        {
          "internalType": "string",
          "name": "name",
          "type": "string"
        },
        {
          "internalType": "string",
          "name": "symbol",
          "type": "string"
        },
        {
          "internalType": "uint256",
          "name": "maxSupply",
          "type": "uint256"
        },
        {
          "internalType": "string",
          "name": "rulesURI",
          "type": "string"
        },
        {
          "internalType": "address",
          "name": "sponsee",
          "type": "address"
        }
      ],
      "name": "createWithNewNFT",
      "outputs": [],
      "stateMutability": "nonpayable",
      "type": "function"
    }
  ],
  "bytecode": "0x6080604052604051610010906100a8565b604051809103906000f08015801561002c573d6000803e3d6000fd5b50600080546001600160a01b0319166001600160a01b0392909216919091179055604051610059906100b5565b604051809103906000f080158015610075573d6000803e3d6000fd5b50600180546001600160a01b0319166001600160a01b03929092169190911790553480156100a257600080fd5b506100c2565b612f578061230483390190565b6115cc8061525b83390190565b612233806100d16000396000f3fe60806040523480156200001157600080fd5b5060043610620000465760003560e01c80632f559cd5146200004b5780633aec6e131462000064578063f3f5e46d146200007b575b600080fd5b620000626200005c366004620003cf565b620000ae565b005b62000062620000753660046200043b565b620000c3565b620000926200008c366004620004ee565b620000ed565b6040516001600160a01b03909116815260200160405180910390f35b620000bd83838360006200025a565b50505050565b6000620000d386868685620000ed565b9050620000e481848460016200025a565b50505050505050565b600154604051630948907f60e31b81526001600160a01b0383811660048301526000928392911690634a4483f890602401602060405180830381600087803b1580156200013957600080fd5b505af11580156200014e573d6000803e3d6000fd5b505050506040513d601f19601f8201168201806040525081019062000174919062000577565b60005460405163f4c0a68760e01b81529192506001600160a01b03169063f4c0a68790620001af9089908990899089908890600401620005ee565b602060405180830381600087803b158015620001ca57600080fd5b505af1158015620001df573d6000803e3d6000fd5b505050506040513d601f19601f8201168201806040525081019062000205919062000577565b9150806001600160a01b0316836001600160a01b0316836001600160a01b03167f29c9b2fbe8c468ca565590b217e9131f7cd0711021af3433fa0b2f06bc49acea60405160405180910390a450949350505050565b60008484846040516200026d90620002fd565b6200027b939291906200063f565b604051809103906000f08015801562000298573d6000803e3d6000fd5b509050846001600160a01b0316836001600160a01b0316826001600160a01b03167f26c690150bb2cd6887c223ffea455e8f5657736afe70e6d233f14bd0050e618485604051620002ed911515815260200190565b60405180910390a4949350505050565b611b87806200067783390190565b6001600160a01b03811681146200032157600080fd5b50565b634e487b7160e01b600052604160045260246000fd5b600082601f8301126200034c57600080fd5b813567ffffffffffffffff808211156200036a576200036a62000324565b604051601f8301601f19908116603f0116810190828211818310171562000395576200039562000324565b81604052838152866020858801011115620003af57600080fd5b836020870160208301376000602085830101528094505050505092915050565b600080600060608486031215620003e557600080fd5b8335620003f2816200030b565b9250602084013567ffffffffffffffff8111156200040f57600080fd5b6200041d868287016200033a565b925050604084013562000430816200030b565b809150509250925092565b600080600080600060a086880312156200045457600080fd5b853567ffffffffffffffff808211156200046d57600080fd5b6200047b89838a016200033a565b965060208801359150808211156200049257600080fd5b620004a089838a016200033a565b9550604088013594506060880135915080821115620004be57600080fd5b50620004cd888289016200033a565b9250506080860135620004e0816200030b565b809150509295509295909350565b600080600080608085870312156200050557600080fd5b843567ffffffffffffffff808211156200051e57600080fd5b6200052c888389016200033a565b955060208701359150808211156200054357600080fd5b5062000552878288016200033a565b9350506040850135915060608501356200056c816200030b565b939692955090935050565b6000602082840312156200058a57600080fd5b815162000597816200030b565b9392505050565b6000815180845260005b81811015620005c657602081850181015186830182015201620005a8565b81811115620005d9576000602083870101525b50601f01601f19169290920160200192915050565b60a0815260006200060360a08301886200059e565b82810360208401526200061781886200059e565b604084019690965250506001600160a01b039283166060820152911660809091015292915050565b600060018060a01b038086168352606060208401526200066360608401866200059e565b915080841660408401525094935050505056fe60a06040523480156200001157600080fd5b5060405162001b8738038062001b878339810160408190526200003491620003cc565b6001600160a01b0381166200005c5760405163250083d960e01b815260040160405180910390fd5b6040516301ffc9a760e01b81526380ac58cd60e01b60048201526001600160a01b038416906301ffc9a79060240160206040518083038186803b158015620000a357600080fd5b505afa925050508015620000d6575060408051601f3d908101601f19168201909252620000d391810190620004d3565b60015b62000126573d80801562000107576040519150601f19603f3d011682016040523d82523d6000602084013e6200010c565b606091505b50604051637337a87360e11b815260040160405180910390fd5b506001600160a01b038316608052815162000149906001906020850190620002e5565b5062000157600082620001b8565b620001837f782e4d852a9ccc8499483245b0071b6a09b1f2f570b62718368d0db450f117be82620001b8565b620001af7f7e974f0f1fcc17efde2f86b6bc87a2472ba1e48e4763b18496c6d527de5097c382620001b8565b5050506200053b565b620001c48282620001c8565b5050565b6000828152602081815260408083206001600160a01b038516845290915290205460ff16620001c4576000828152602081815260408083206001600160a01b03851684529091529020805460ff19166001179055620002266200026a565b6001600160a01b0316816001600160a01b0316837f2f8788117e7eff1d82e926ec794901d17c78024a50270940304540a733656f0d60405160405180910390a45050565b6000620002816200028660201b620008de1760201c565b905090565b600033301415620002df57600080368080601f0160208091040260200160405190810160405280939291908181526020018383808284376000920191909152505050503601516001600160a01b03169150620002e29050565b50335b90565b828054620002f390620004fe565b90600052602060002090601f01602090048101928262000317576000855562000362565b82601f106200033257805160ff191683800117855562000362565b8280016001018555821562000362579182015b828111156200036257825182559160200191906001019062000345565b506200037092915062000374565b5090565b5b8082111562000370576000815560010162000375565b6001600160a01b0381168114620003a157600080fd5b50565b634e487b7160e01b600052604160045260246000fd5b8051620003c7816200038b565b919050565b600080600060608486031215620003e257600080fd5b8351620003ef816200038b565b602085810151919450906001600160401b03808211156200040f57600080fd5b818701915087601f8301126200042457600080fd5b815181811115620004395762000439620003a4565b604051601f8201601f19908116603f01168101908382118183101715620004645762000464620003a4565b816040528281528a868487010111156200047d57600080fd5b600093505b82841015620004a1578484018601518185018701529285019262000482565b82841115620004b35760008684830101525b809750505050505050620004ca60408501620003ba565b90509250925092565b600060208284031215620004e657600080fd5b81518015158114620004f757600080fd5b9392505050565b600181811c908216806200051357607f821691505b602082108114156200053557634e487b7160e01b600052602260045260246000fd5b50919050565b60805161162262000565600039600081816101110152818161019e015261033f01526116226000f3fe608060405234801561001057600080fd5b506004361061010a5760003560e01c806336568abe116100a25780639aaeca9c116100715780639aaeca9c14610279578063a217fddf146102a0578063d547741f146102a8578063d882be6a146102bb578063f40f5124146102ce57600080fd5b806336568abe1461022b578063885f21821461023e57806391d148541461025157806396c28d901461026457600080fd5b80631fda9a02116100de5780631fda9a0214610199578063248a9ca3146101c05780632a36f582146101f15780632f2ff15d1461021857600080fd5b8062e4612f1461010f57806301ffc9a71461014e5780630ac4dd00146101715780630ceea8d914610186575b600080fd5b7f00000000000000000000000000000000000000000000000000000000000000005b6040516001600160a01b0390911681526020015b60405180910390f35b61016161015c3660046110b6565b6102f0565b6040519015158152602001610145565b61018461017f366004611183565b610327565b005b6101616101943660046111f0565b610460565b6101317f000000000000000000000000000000000000000000000000000000000000000081565b6101e36101ce36600461122d565b60009081526020819052604090206001015490565b604051908152602001610145565b6101e37f782e4d852a9ccc8499483245b0071b6a09b1f2f570b62718368d0db450f117be81565b61018461022636600461125b565b610483565b61018461023936600461125b565b6104ad565b61018461024c3660046112a0565b610540565b61016161025f36600461125b565b610574565b61026c61059d565b604051610145919061134a565b6101e37f7e974f0f1fcc17efde2f86b6bc87a2472ba1e48e4763b18496c6d527de5097c381565b6101e3600081565b6101846102b636600461125b565b61062b565b6101846102c936600461135d565b610650565b6102e16102dc3660046113db565b6106f3565b60405161014593929190611422565b60006001600160e01b03198216637965db0b60e01b148061032157506301ffc9a760e01b6001600160e01b03198316145b92915050565b6040516331a9108f60e11b81526004810184905283907f00000000000000000000000000000000000000000000000000000000000000006001600160a01b031690636352211e9060240160206040518083038186803b15801561038957600080fd5b505afa15801561039d573d6000803e3d6000fd5b505050506040513d601f19601f820116820180604052508101906103c1919061145b565b6001600160a01b03166103d261093b565b6001600160a01b0316146103f957604051633c16e2ed60e01b815260040160405180910390fd5b8251602084012061040c9085908461094a565b8260405161041a9190611478565b6040518091039020847f1d68cb7b7559aa503c2cf3f6d1641ade3a8ecdded997ce38ea6783b7acd889a284604051610452919061134a565b60405180910390a350505050565b805160208201206000906103219060009081526002602052604090205460ff1690565b60008281526020819052604090206001015461049e81610ab0565b6104a88383610ac4565b505050565b6104b561093b565b6001600160a01b0316816001600160a01b0316146105325760405162461bcd60e51b815260206004820152602f60248201527f416363657373436f6e74726f6c3a2063616e206f6e6c792072656e6f756e636560448201526e103937b632b9903337b91039b2b63360891b60648201526084015b60405180910390fd5b61053c8282610b49565b5050565b7f782e4d852a9ccc8499483245b0071b6a09b1f2f570b62718368d0db450f117be61056a81610ab0565b6104a88383610bcc565b6000918252602082815260408084206001600160a01b0393909316845291905290205460ff1690565b600180546105aa90611494565b80601f01602080910402602001604051908101604052809291908181526020018280546105d690611494565b80156106235780601f106105f857610100808354040283529160200191610623565b820191906000526020600020905b81548152906001019060200180831161060657829003601f168201915b505050505081565b60008281526020819052604090206001015461064681610ab0565b6104a88383610b49565b7f7e974f0f1fcc17efde2f86b6bc87a2472ba1e48e4763b18496c6d527de5097c361067a81610ab0565b60606106968661068f87805160209091012090565b8686610c3f565b9050831515856040516106a99190611478565b6040518091039020877fd579c2e0252e9a64b3893e398b2f602f60abbd34dc014c65475837596dfbe0d184876040516106e39291906114cf565b60405180910390a4505050505050565b600082815260036020526040812060609182918291908161071987805160209091012090565b8152602001908152602001600020905080600001805461073890611494565b80601f016020809104026020016040519081016040528092919081815260200182805461076490611494565b80156107b15780601f10610786576101008083540402835291602001916107b1565b820191906000526020600020905b81548152906001019060200180831161079457829003601f168201915b505050505093508060010180546107c790611494565b80601f01602080910402602001604051908101604052809291908181526020018280546107f390611494565b80156108405780601f1061081557610100808354040283529160200191610840565b820191906000526020600020905b81548152906001019060200180831161082357829003601f168201915b5050505050925080600201805461085690611494565b80601f016020809104026020016040519081016040528092919081815260200182805461088290611494565b80156108cf5780601f106108a4576101008083540402835291602001916108cf565b820191906000526020600020905b8154815290600101906020018083116108b257829003601f168201915b50505050509150509250925092565b60003330141561093557600080368080601f0160208091040260200160405190810160405280939291908181526020018383808284376000920191909152505050503601516001600160a01b031691506109389050565b50335b90565b60006109456108de565b905090565b600082815260026020526040902054829060ff1661097b5760405163ae971eb160e01b815260040160405180910390fd5b60008481526003602090815260408083208684529091528120805461099f90611494565b80601f01602080910402602001604051908101604052809291908181526020018280546109cb90611494565b8015610a185780601f106109ed57610100808354040283529160200191610a18565b820191906000526020600020905b8154815290600101906020018083116109fb57829003601f168201915b50506040805160608101825285815260208082018a9052825180820184526000808252838501919091528c8152600382528381208c8252825292909220815180519798509196909550610a71945085935091019061101d565b506020828101518051610a8a926001850192019061101d565b5060408201518051610aa691600284019160209091019061101d565b5050505050505050565b610ac181610abc61093b565b610e16565b50565b610ace8282610574565b61053c576000828152602081815260408083206001600160a01b03851684529091529020805460ff19166001179055610b0561093b565b6001600160a01b0316816001600160a01b0316837f2f8788117e7eff1d82e926ec794901d17c78024a50270940304540a733656f0d60405160405180910390a45050565b610b538282610574565b1561053c576000828152602081815260408083206001600160a01b03851684529091529020805460ff19169055610b8861093b565b6001600160a01b0316816001600160a01b0316837ff6391f5c32d9c69d2a47ea670b442974b53935d1edc7fd64eb21e047a839171b60405160405180910390a45050565b81511561053c5781516020830120610bfa906000908152600260205260409020805460ff1916831515179055565b80151582604051610c0b9190611478565b604051908190038120907f74cc69a029cc22a209536d643ca1ab46003e98737e46a5bb7bbd80c63fc8d3d190600090a35050565b606083610c5b8160009081526002602052604090205460ff1690565b610c785760405163ae971eb160e01b815260040160405180910390fd5b600086815260036020908152604080832088845290915281206001018054610c9f90611494565b80601f0160208091040260200160405190810160405280929190818152602001828054610ccb90611494565b8015610d185780601f10610ced57610100808354040283529160200191610d18565b820191906000526020600020905b815481529060010190602001808311610cfb57829003601f168201915b50505050509050805160001415610d425760405163b3bbfdb760e01b815260040160405180910390fd5b8415610ddd576040805160608101825282815281516020818101845260008083528184019290925283518082018552828152838501528a8252600381528382208a835281529290208151805192939192610d9f928492019061101d565b506020828101518051610db8926001850192019061101d565b5060408201518051610dd491600284019160209091019061101d565b50905050610e0c565b600087815260036020908152604080832089845282529091208551610e0a9260029092019187019061101d565b505b9695505050505050565b610e208282610574565b61053c57610e38816001600160a01b03166014610e7a565b610e43836020610e7a565b604051602001610e549291906114fd565b60408051601f198184030181529082905262461bcd60e51b82526105299160040161134a565b60606000610e89836002611588565b610e949060026115a7565b67ffffffffffffffff811115610eac57610eac6110e0565b6040519080825280601f01601f191660200182016040528015610ed6576020820181803683370190505b509050600360fc1b81600081518110610ef157610ef16115bf565b60200101906001600160f81b031916908160001a905350600f60fb1b81600181518110610f2057610f206115bf565b60200101906001600160f81b031916908160001a9053506000610f44846002611588565b610f4f9060016115a7565b90505b6001811115610fc7576f181899199a1a9b1b9c1cb0b131b232b360811b85600f1660108110610f8357610f836115bf565b1a60f81b828281518110610f9957610f996115bf565b60200101906001600160f81b031916908160001a90535060049490941c93610fc0816115d5565b9050610f52565b5083156110165760405162461bcd60e51b815260206004820181905260248201527f537472696e67733a20686578206c656e67746820696e73756666696369656e746044820152606401610529565b9392505050565b82805461102990611494565b90600052602060002090601f01602090048101928261104b5760008555611091565b82601f1061106457805160ff1916838001178555611091565b82800160010185558215611091579182015b82811115611091578251825591602001919060010190611076565b5061109d9291506110a1565b5090565b5b8082111561109d57600081556001016110a2565b6000602082840312156110c857600080fd5b81356001600160e01b03198116811461101657600080fd5b634e487b7160e01b600052604160045260246000fd5b600082601f83011261110757600080fd5b813567ffffffffffffffff80821115611122576111226110e0565b604051601f8301601f19908116603f0116810190828211818310171561114a5761114a6110e0565b8160405283815286602085880101111561116357600080fd5b836020870160208301376000602085830101528094505050505092915050565b60008060006060848603121561119857600080fd5b83359250602084013567ffffffffffffffff808211156111b757600080fd5b6111c3878388016110f6565b935060408601359150808211156111d957600080fd5b506111e6868287016110f6565b9150509250925092565b60006020828403121561120257600080fd5b813567ffffffffffffffff81111561121957600080fd5b611225848285016110f6565b949350505050565b60006020828403121561123f57600080fd5b5035919050565b6001600160a01b0381168114610ac157600080fd5b6000806040838503121561126e57600080fd5b82359150602083013561128081611246565b809150509250929050565b8035801515811461129b57600080fd5b919050565b600080604083850312156112b357600080fd5b823567ffffffffffffffff8111156112ca57600080fd5b6112d6858286016110f6565b9250506112e56020840161128b565b90509250929050565b60005b838110156113095781810151838201526020016112f1565b83811115611318576000848401525b50505050565b600081518084526113368160208601602086016112ee565b601f01601f19169290920160200192915050565b602081526000611016602083018461131e565b6000806000806080858703121561137357600080fd5b84359350602085013567ffffffffffffffff8082111561139257600080fd5b61139e888389016110f6565b94506113ac6040880161128b565b935060608701359150808211156113c257600080fd5b506113cf878288016110f6565b91505092959194509250565b600080604083850312156113ee57600080fd5b82359150602083013567ffffffffffffffff81111561140c57600080fd5b611418858286016110f6565b9150509250929050565b606081526000611435606083018661131e565b8281036020840152611447818661131e565b90508281036040840152610e0c818561131e565b60006020828403121561146d57600080fd5b815161101681611246565b6000825161148a8184602087016112ee565b9190910192915050565b600181811c908216806114a857607f821691505b602082108114156114c957634e487b7160e01b600052602260045260246000fd5b50919050565b6040815260006114e2604083018561131e565b82810360208401526114f4818561131e565b95945050505050565b7f416363657373436f6e74726f6c3a206163636f756e74200000000000000000008152600083516115358160178501602088016112ee565b7001034b99036b4b9b9b4b733903937b6329607d1b60179184019182015283516115668160288401602088016112ee565b01602801949350505050565b634e487b7160e01b600052601160045260246000fd5b60008160001904831182151516156115a2576115a2611572565b500290565b600082198211156115ba576115ba611572565b500190565b634e487b7160e01b600052603260045260246000fd5b6000816115e4576115e4611572565b50600019019056fea26469706673582212200487fdb1536d8806df723214b5c8f8ea24c966a319056843302ee20e4da1ad7464736f6c63430008090033a2646970667358221220437fc5d1f9cfd1ace1c0699d9ff95e56209f1859e3301175d415f9d28cd0de7264736f6c63430008090033608060405234801561001057600080fd5b50612f37806100206000396000f3fe608060405234801561001057600080fd5b506004361061002b5760003560e01c8063f4c0a68714610030575b600080fd5b61004361003e36600461016f565b61005f565b6040516001600160a01b03909116815260200160405180910390f35b60008585858585604051610072906100a7565b610080959493929190610251565b604051809103906000f08015801561009c573d6000803e3d6000fd5b509695505050505050565b612c638061029f83390190565b634e487b7160e01b600052604160045260246000fd5b600082601f8301126100db57600080fd5b813567ffffffffffffffff808211156100f6576100f66100b4565b604051601f8301601f19908116603f0116810190828211818310171561011e5761011e6100b4565b8160405283815286602085880101111561013757600080fd5b836020870160208301376000602085830101528094505050505092915050565b6001600160a01b038116811461016c57600080fd5b50565b600080600080600060a0868803121561018757600080fd5b853567ffffffffffffffff8082111561019f57600080fd5b6101ab89838a016100ca565b965060208801359150808211156101c157600080fd5b506101ce888289016100ca565b9450506040860135925060608601356101e681610157565b915060808601356101f681610157565b809150509295509295909350565b6000815180845260005b8181101561022a5760208185018101518683018201520161020e565b8181111561023c576000602083870101525b50601f01601f19169290920160200192915050565b60a08152600061026460a0830188610204565b82810360208401526102768188610204565b604084019690965250506001600160a01b03928316606082015291166080909101529291505056fe610120604052600060e0819052610100819052600d805460ff19169055600e553480156200002c57600080fd5b5060405162002c6338038062002c638339810160408190526200004f91620002a2565b8451859085906200006890600290602085019062000116565b5080516200007e90600390602084019062000116565b505060016008555082620000a557604051633d823b6160e01b815260040160405180910390fd5b6001600160a01b038216620000cd57604051631e7d738760e21b815260040160405180910390fd5b6001600160a01b038116620000f557604051631e7d738760e21b815260040160405180910390fd5b6080929092526001600160a01b0390811660c0521660a052506200037f9050565b828054620001249062000342565b90600052602060002090601f01602090048101928262000148576000855562000193565b82601f106200016357805160ff191683800117855562000193565b8280016001018555821562000193579182015b828111156200019357825182559160200191906001019062000176565b50620001a1929150620001a5565b5090565b5b80821115620001a15760008155600101620001a6565b634e487b7160e01b600052604160045260246000fd5b600082601f830112620001e457600080fd5b81516001600160401b0380821115620002015762000201620001bc565b604051601f8301601f19908116603f011681019082821181831017156200022c576200022c620001bc565b816040528381526020925086838588010111156200024957600080fd5b600091505b838210156200026d57858201830151818301840152908201906200024e565b838211156200027f5760008385830101525b9695505050505050565b6001600160a01b03811681146200029f57600080fd5b50565b600080600080600060a08688031215620002bb57600080fd5b85516001600160401b0380821115620002d357600080fd5b620002e189838a01620001d2565b96506020880151915080821115620002f857600080fd5b506200030788828901620001d2565b945050604086015192506060860151620003218162000289565b6080870151909250620003348162000289565b809150509295509295909350565b600181811c908216806200035757607f821691505b602082108114156200037957634e487b7160e01b600052602260045260246000fd5b50919050565b60805160a05160c0516128596200040a6000396000818161039e0152818161066c0152818161089201528181610a6d01528181610ad201528181610fc8015261123b01526000818161036d0152818161041a01528181610e6501528181610ea701526112970152600081816103d40152818161046d015281816108ec01526117bf01526128596000f3fe6080604052600436106101e35760003560e01c806355f804b31161010257806395d89b4111610095578063cac9266911610064578063cac9266914610605578063e8a3d48514610625578063e985e9c51461063a578063ee0fc1211461065a57600080fd5b806395d89b4114610590578063a22cb465146105a5578063b88d4fde146105c5578063c87b56dd146105e557600080fd5b806370a08231116100d157806370a0823114610506578063725a82941461052657806383e7585914610539578063938e3d7b1461057057600080fd5b806355f804b314610491578063580ba903146104b15780636352211e146104d15780636c0360eb146104f157600080fd5b80632a55205a1161017a57806337929eb41161014957806337929eb4146103f65780633b19e84a1461040b57806342842e0e1461043e5780634c0f38c21461045e57600080fd5b80632a55205a1461031c5780632d2c55651461035b5780633018205f1461038f57806332cb6b0c146103c257600080fd5b80630e89341c116101b65780630e89341c14610299578063162094c4146102b957806318160ddd146102d957806323b872dd146102fc57600080fd5b806301ffc9a7146101e857806306fdde031461021d578063081812fc1461023f578063095ea7b314610277575b600080fd5b3480156101f457600080fd5b50610208610203366004612140565b61068e565b60405190151581526020015b60405180910390f35b34801561022957600080fd5b5061023261069f565b60405161021491906121b5565b34801561024b57600080fd5b5061025f61025a3660046121c8565b610731565b6040516001600160a01b039091168152602001610214565b34801561028357600080fd5b506102976102923660046121fd565b610758565b005b3480156102a557600080fd5b506102326102b43660046121c8565b610885565b3480156102c557600080fd5b506102976102d4366004612269565b610890565b3480156102e557600080fd5b506102ee61094b565b604051908152602001610214565b34801561030857600080fd5b506102976103173660046122b5565b61095b565b34801561032857600080fd5b5061033c6103373660046122f1565b610993565b604080516001600160a01b039093168352602083019190915201610214565b34801561036757600080fd5b5061025f7f000000000000000000000000000000000000000000000000000000000000000081565b34801561039b57600080fd5b507f000000000000000000000000000000000000000000000000000000000000000061025f565b3480156103ce57600080fd5b506102ee7f000000000000000000000000000000000000000000000000000000000000000081565b34801561040257600080fd5b50610232610a41565b34801561041757600080fd5b507f000000000000000000000000000000000000000000000000000000000000000061025f565b34801561044a57600080fd5b506102976104593660046122b5565b610a50565b34801561046a57600080fd5b507f00000000000000000000000000000000000000000000000000000000000000006102ee565b34801561049d57600080fd5b506102976104ac366004612313565b610a6b565b3480156104bd57600080fd5b506102976104cc366004612363565b610ad0565b3480156104dd57600080fd5b5061025f6104ec3660046121c8565b610bea565b3480156104fd57600080fd5b50610232610c4a565b34801561051257600080fd5b506102ee6105213660046123a2565b610cd8565b6102976105343660046123bd565b610d5e565b34801561054557600080fd5b506105596105543660046123a2565b610f67565b604080519215158352602083019190915201610214565b34801561057c57600080fd5b5061029761058b366004612313565b610fc6565b34801561059c57600080fd5b5061023261102b565b3480156105b157600080fd5b506102976105c036600461241e565b61103a565b3480156105d157600080fd5b506102976105e036600461246b565b611050565b3480156105f157600080fd5b506102326106003660046121c8565b611089565b34801561061157600080fd5b50610297610620366004612547565b611239565b34801561063157600080fd5b506102326112bf565b34801561064657600080fd5b50610208610655366004612570565b6112cc565b34801561066657600080fd5b5061025f7f000000000000000000000000000000000000000000000000000000000000000081565b600061069982611338565b92915050565b6060600280546106ae906125a3565b80601f01602080910402602001604051908101604052809291908181526020018280546106da906125a3565b80156107275780601f106106fc57610100808354040283529160200191610727565b820191906000526020600020905b81548152906001019060200180831161070a57829003601f168201915b5050505050905090565b600061073c82611378565b506000908152600660205260409020546001600160a01b031690565b600061076382610bea565b9050806001600160a01b0316836001600160a01b031614156107d65760405162461bcd60e51b815260206004820152602160248201527f4552433732313a20617070726f76616c20746f2063757272656e74206f776e656044820152603960f91b60648201526084015b60405180910390fd5b806001600160a01b03166107e86113d7565b6001600160a01b031614806108045750610804816106556113d7565b6108765760405162461bcd60e51b815260206004820152603e60248201527f4552433732313a20617070726f76652063616c6c6572206973206e6f7420746f60448201527f6b656e206f776e6572206e6f7220617070726f76656420666f7220616c6c000060648201526084016107cd565b61088083836113e1565b505050565b606061069982611089565b7f00000000000000000000000000000000000000000000000000000000000000006001600160a01b03166108c26113d7565b6001600160a01b0316146108e9576040516346e03aa360e01b815260040160405180910390fd5b827f00000000000000000000000000000000000000000000000000000000000000001161092c5760405163ed15e6cf60e01b8152600481018490526024016107cd565b6000838152600b60205260409020610945908383612091565b50505050565b6000610956600c5490565b905090565b61096c6109666113d7565b8261144f565b6109885760405162461bcd60e51b81526004016107cd906125de565b6108808383836114ad565b60008281526001602090815260408083208151808301909252546001600160a01b038116808352600160a01b9091046001600160601b0316928201929092528291610a085750604080518082019091526000546001600160a01b0381168252600160a01b90046001600160601b031660208201525b602081015160009061271090610a27906001600160601b031687612642565b610a319190612677565b91519350909150505b9250929050565b6060600980546106ae906125a3565b61088083838360405180602001604052806000815250611050565b7f00000000000000000000000000000000000000000000000000000000000000006001600160a01b0316610a9d6113d7565b6001600160a01b031614610ac4576040516346e03aa360e01b815260040160405180910390fd5b610880600a8383612091565b7f00000000000000000000000000000000000000000000000000000000000000006001600160a01b0316610b026113d7565b6001600160a01b031614610b29576040516346e03aa360e01b815260040160405180910390fd5b6001600160a01b03831615610b8057604080518082018252831515815260208082018481526001600160a01b0387166000908152600f9092529290209051815460ff19169015151781559051600190910155610bab565b604080518082019091528215158082526020909101829052600d805460ff19169091179055600e8190555b80821515846001600160a01b03167ff2ec40995a395fdc03adea87f463b3ed8e70e91f5b2eef24f4d6bdb300f0432460405160405180910390a4505050565b6000818152600460205260408120546001600160a01b0316806106995760405162461bcd60e51b8152602060048201526018602482015277115490cdcc8c4e881a5b9d985b1a59081d1bdad95b88125160421b60448201526064016107cd565b600a8054610c57906125a3565b80601f0160208091040260200160405190810160405280929190818152602001828054610c83906125a3565b8015610cd05780601f10610ca557610100808354040283529160200191610cd0565b820191906000526020600020905b815481529060010190602001808311610cb357829003601f168201915b505050505081565b60006001600160a01b038216610d425760405162461bcd60e51b815260206004820152602960248201527f4552433732313a2061646472657373207a65726f206973206e6f7420612076616044820152683634b21037bbb732b960b91b60648201526084016107cd565b506001600160a01b031660009081526005602052604090205490565b60026008541415610db15760405162461bcd60e51b815260206004820152601f60248201527f5265656e7472616e637947756172643a207265656e7472616e742063616c6c0060448201526064016107cd565b60026008556001600160a01b038316610ddd57604051631e7d738760e21b815260040160405180910390fd5b600080610de986610f67565b9150915081610e1657604051633c9b6add60e21b81526001600160a01b03871660048201526024016107cd565b6001600160a01b038616158015610e2c57508034105b15610e4c57604051635cfd20c360e01b81523460048201526024016107cd565b8015610ecc576001600160a01b038616610e8f57610e8a7f000000000000000000000000000000000000000000000000000000000000000082611649565b610ecc565b610ecc610e9a6113d7565b6001600160a01b038816907f000000000000000000000000000000000000000000000000000000000000000084611762565b6000610ed661094b565b9050610ee286826117bc565b8484604051610ef292919061268b565b604051809103902082886001600160a01b03167f9ce6c39405d3919a047feae8890097cb9d2827668d35c75de56d2287fe32377589610f2f6113d7565b604080516001600160a01b039384168152929091166020830152810186905260600160405180910390a4505060016008555050505050565b600080806001600160a01b038416610f8057600d610f99565b6001600160a01b0384166000908152600f602052604090205b60408051808201909152815460ff1615158082526001909201546020909101819052909590945092505050565b7f00000000000000000000000000000000000000000000000000000000000000006001600160a01b0316610ff86113d7565b6001600160a01b03161461101f576040516346e03aa360e01b815260040160405180910390fd5b61088060098383612091565b6060600380546106ae906125a3565b61104c6110456113d7565b8383611814565b5050565b61106161105b6113d7565b8361144f565b61107d5760405162461bcd60e51b81526004016107cd906125de565b610945848484846118e3565b606061109482611378565b6000828152600b6020526040812080546110ad906125a3565b80601f01602080910402602001604051908101604052809291908181526020018280546110d9906125a3565b80156111265780601f106110fb57610100808354040283529160200191611126565b820191906000526020600020905b81548152906001019060200180831161110957829003601f168201915b505050505090506000600a805461113c906125a3565b80601f0160208091040260200160405190810160405280929190818152602001828054611168906125a3565b80156111b55780601f1061118a576101008083540402835291602001916111b5565b820191906000526020600020905b81548152906001019060200180831161119857829003601f168201915b505050505090508051600014156111ec578151156111d357816111e4565b604051806020016040528060008152505b949350505050565b81511561121e57808260405160200161120692919061269b565b60405160208183030381529060405292505050919050565b8061122885611916565b60405160200161120692919061269b565b7f00000000000000000000000000000000000000000000000000000000000000006001600160a01b031661126b6113d7565b6001600160a01b031614611292576040516346e03aa360e01b815260040160405180910390fd5b6112bc7f000000000000000000000000000000000000000000000000000000000000000082611a14565b50565b60098054610c57906125a3565b60004660891480156112fa57506001600160a01b0382167358807bad0b376efc12f5ad86aac70e78ed67deae145b1561130757506001610699565b6001600160a01b0380841660009081526007602090815260408083209386168352929052205460ff165b9392505050565b60006001600160e01b031982166380ac58cd60e01b148061136957506001600160e01b03198216635b5e139f60e01b145b80610699575061069982611b11565b6000818152600460205260409020546001600160a01b03166112bc5760405162461bcd60e51b8152602060048201526018602482015277115490cdcc8c4e881a5b9d985b1a59081d1bdad95b88125160421b60448201526064016107cd565b6000610956611b46565b600081815260066020526040902080546001600160a01b0319166001600160a01b038416908117909155819061141682610bea565b6001600160a01b03167f8c5be1e5ebec7d5bd14f71427d1e84f3dd0314c0f7b2291e5b200ac8c7c3b92560405160405180910390a45050565b60008061145b83610bea565b9050806001600160a01b0316846001600160a01b03161480611482575061148281856112cc565b806111e45750836001600160a01b031661149b84610731565b6001600160a01b031614949350505050565b826001600160a01b03166114c082610bea565b6001600160a01b0316146115245760405162461bcd60e51b815260206004820152602560248201527f4552433732313a207472616e736665722066726f6d20696e636f72726563742060448201526437bbb732b960d91b60648201526084016107cd565b6001600160a01b0382166115865760405162461bcd60e51b8152602060048201526024808201527f4552433732313a207472616e7366657220746f20746865207a65726f206164646044820152637265737360e01b60648201526084016107cd565b6115916000826113e1565b6001600160a01b03831660009081526005602052604081208054600192906115ba9084906126ca565b90915550506001600160a01b03821660009081526005602052604081208054600192906115e89084906126e1565b909155505060008181526004602052604080822080546001600160a01b0319166001600160a01b0386811691821790925591518493918716917fddf252ad1be2c89b69c2b068fc378daa952ba7f163c4a11628f55a4df523b3ef91a4505050565b804710156116995760405162461bcd60e51b815260206004820152601d60248201527f416464726573733a20696e73756666696369656e742062616c616e636500000060448201526064016107cd565b6000826001600160a01b03168260405160006040518083038185875af1925050503d80600081146116e6576040519150601f19603f3d011682016040523d82523d6000602084013e6116eb565b606091505b50509050806108805760405162461bcd60e51b815260206004820152603a60248201527f416464726573733a20756e61626c6520746f2073656e642076616c75652c207260448201527f6563697069656e74206d6179206861766520726576657274656400000000000060648201526084016107cd565b604080516001600160a01b0385811660248301528416604482015260648082018490528251808303909101815260849091019091526020810180516001600160e01b03166323b872dd60e01b179052610945908590611ba3565b807f0000000000000000000000000000000000000000000000000000000000000000116117fc57604051638a164f6360e01b815260040160405180910390fd5b6118068282611c75565b61104c600c80546001019055565b816001600160a01b0316836001600160a01b031614156118765760405162461bcd60e51b815260206004820152601960248201527f4552433732313a20617070726f766520746f2063616c6c65720000000000000060448201526064016107cd565b6001600160a01b03838116600081815260076020908152604080832094871680845294825291829020805460ff191686151590811790915591519182527f17307eab39ab6107e8899845ad3d59bd9653f200f220920489ca2b5937696c31910160405180910390a3505050565b6118ee8484846114ad565b6118fa84848484611c8f565b6109455760405162461bcd60e51b81526004016107cd906126f9565b60608161193a5750506040805180820190915260018152600360fc1b602082015290565b8160005b8115611964578061194e8161274b565b915061195d9050600a83612677565b915061193e565b60008167ffffffffffffffff81111561197f5761197f612455565b6040519080825280601f01601f1916602001820160405280156119a9576020820181803683370190505b5090505b84156111e4576119be6001836126ca565b91506119cb600a86612766565b6119d69060306126e1565b60f81b8183815181106119eb576119eb61277a565b60200101906001600160f81b031916908160001a905350611a0d600a86612677565b94506119ad565b6127106001600160601b0382161115611a825760405162461bcd60e51b815260206004820152602a60248201527f455243323938313a20726f79616c7479206665652077696c6c206578636565646044820152692073616c65507269636560b01b60648201526084016107cd565b6001600160a01b038216611ad85760405162461bcd60e51b815260206004820152601960248201527f455243323938313a20696e76616c69642072656365697665720000000000000060448201526064016107cd565b604080518082019091526001600160a01b039092168083526001600160601b039091166020909201829052600160a01b90910217600055565b60006001600160e01b0319821663152a902d60e11b148061069957506301ffc9a760e01b6001600160e01b0319831614610699565b600033301415611b9d57600080368080601f0160208091040260200160405190810160405280939291908181526020018383808284376000920191909152505050503601516001600160a01b03169150611ba09050565b50335b90565b6000611bf8826040518060400160405280602081526020017f5361666545524332303a206c6f772d6c6576656c2063616c6c206661696c6564815250856001600160a01b0316611da39092919063ffffffff16565b8051909150156108805780806020019051810190611c169190612790565b6108805760405162461bcd60e51b815260206004820152602a60248201527f5361666545524332303a204552433230206f7065726174696f6e20646964206e6044820152691bdd081cdd58d8d9595960b21b60648201526084016107cd565b61104c828260405180602001604052806000815250611db2565b60006001600160a01b0384163b15611d9857836001600160a01b031663150b7a02611cb86113d7565b8786866040518563ffffffff1660e01b8152600401611cda94939291906127ad565b602060405180830381600087803b158015611cf457600080fd5b505af1925050508015611d24575060408051601f3d908101601f19168201909252611d21918101906127ea565b60015b611d7e573d808015611d52576040519150601f19603f3d011682016040523d82523d6000602084013e611d57565b606091505b508051611d765760405162461bcd60e51b81526004016107cd906126f9565b805181602001fd5b6001600160e01b031916630a85bd0160e11b1490506111e4565b506001949350505050565b60606111e48484600085611de5565b611dbc8383611f16565b611dc96000848484611c8f565b6108805760405162461bcd60e51b81526004016107cd906126f9565b606082471015611e465760405162461bcd60e51b815260206004820152602660248201527f416464726573733a20696e73756666696369656e742062616c616e636520666f6044820152651c8818d85b1b60d21b60648201526084016107cd565b6001600160a01b0385163b611e9d5760405162461bcd60e51b815260206004820152601d60248201527f416464726573733a2063616c6c20746f206e6f6e2d636f6e747261637400000060448201526064016107cd565b600080866001600160a01b03168587604051611eb99190612807565b60006040518083038185875af1925050503d8060008114611ef6576040519150601f19603f3d011682016040523d82523d6000602084013e611efb565b606091505b5091509150611f0b828286612058565b979650505050505050565b6001600160a01b038216611f6c5760405162461bcd60e51b815260206004820181905260248201527f4552433732313a206d696e7420746f20746865207a65726f206164647265737360448201526064016107cd565b6000818152600460205260409020546001600160a01b031615611fd15760405162461bcd60e51b815260206004820152601c60248201527f4552433732313a20746f6b656e20616c7265616479206d696e7465640000000060448201526064016107cd565b6001600160a01b0382166000908152600560205260408120805460019290611ffa9084906126e1565b909155505060008181526004602052604080822080546001600160a01b0319166001600160a01b03861690811790915590518392907fddf252ad1be2c89b69c2b068fc378daa952ba7f163c4a11628f55a4df523b3ef908290a45050565b60608315612067575081611331565b8251156120775782518084602001fd5b8160405162461bcd60e51b81526004016107cd91906121b5565b82805461209d906125a3565b90600052602060002090601f0160209004810192826120bf5760008555612105565b82601f106120d85782800160ff19823516178555612105565b82800160010185558215612105579182015b828111156121055782358255916020019190600101906120ea565b50612111929150612115565b5090565b5b808211156121115760008155600101612116565b6001600160e01b0319811681146112bc57600080fd5b60006020828403121561215257600080fd5b81356113318161212a565b60005b83811015612178578181015183820152602001612160565b838111156109455750506000910152565b600081518084526121a181602086016020860161215d565b601f01601f19169290920160200192915050565b6020815260006113316020830184612189565b6000602082840312156121da57600080fd5b5035919050565b80356001600160a01b03811681146121f857600080fd5b919050565b6000806040838503121561221057600080fd5b612219836121e1565b946020939093013593505050565b60008083601f84011261223957600080fd5b50813567ffffffffffffffff81111561225157600080fd5b602083019150836020828501011115610a3a57600080fd5b60008060006040848603121561227e57600080fd5b83359250602084013567ffffffffffffffff81111561229c57600080fd5b6122a886828701612227565b9497909650939450505050565b6000806000606084860312156122ca57600080fd5b6122d3846121e1565b92506122e1602085016121e1565b9150604084013590509250925092565b6000806040838503121561230457600080fd5b50508035926020909101359150565b6000806020838503121561232657600080fd5b823567ffffffffffffffff81111561233d57600080fd5b61234985828601612227565b90969095509350505050565b80151581146112bc57600080fd5b60008060006060848603121561237857600080fd5b612381846121e1565b9250602084013561239181612355565b929592945050506040919091013590565b6000602082840312156123b457600080fd5b611331826121e1565b600080600080606085870312156123d357600080fd5b6123dc856121e1565b93506123ea602086016121e1565b9250604085013567ffffffffffffffff81111561240657600080fd5b61241287828801612227565b95989497509550505050565b6000806040838503121561243157600080fd5b61243a836121e1565b9150602083013561244a81612355565b809150509250929050565b634e487b7160e01b600052604160045260246000fd5b6000806000806080858703121561248157600080fd5b61248a856121e1565b9350612498602086016121e1565b925060408501359150606085013567ffffffffffffffff808211156124bc57600080fd5b818701915087601f8301126124d057600080fd5b8135818111156124e2576124e2612455565b604051601f8201601f19908116603f0116810190838211818310171561250a5761250a612455565b816040528281528a602084870101111561252357600080fd5b82602086016020830137600060208483010152809550505050505092959194509250565b60006020828403121561255957600080fd5b81356001600160601b038116811461133157600080fd5b6000806040838503121561258357600080fd5b61258c836121e1565b915061259a602084016121e1565b90509250929050565b600181811c908216806125b757607f821691505b602082108114156125d857634e487b7160e01b600052602260045260246000fd5b50919050565b6020808252602e908201527f4552433732313a2063616c6c6572206973206e6f7420746f6b656e206f776e6560408201526d1c881b9bdc88185c1c1c9bdd995960921b606082015260800190565b634e487b7160e01b600052601160045260246000fd5b600081600019048311821515161561265c5761265c61262c565b500290565b634e487b7160e01b600052601260045260246000fd5b60008261268657612686612661565b500490565b8183823760009101908152919050565b600083516126ad81846020880161215d565b8351908301906126c181836020880161215d565b01949350505050565b6000828210156126dc576126dc61262c565b500390565b600082198211156126f4576126f461262c565b500190565b60208082526032908201527f4552433732313a207472616e7366657220746f206e6f6e20455243373231526560408201527131b2b4bb32b91034b6b83632b6b2b73a32b960711b606082015260800190565b600060001982141561275f5761275f61262c565b5060010190565b60008261277557612775612661565b500690565b634e487b7160e01b600052603260045260246000fd5b6000602082840312156127a257600080fd5b815161133181612355565b6001600160a01b03858116825284166020820152604081018390526080606082018190526000906127e090830184612189565b9695505050505050565b6000602082840312156127fc57600080fd5b81516113318161212a565b6000825161281981846020870161215d565b919091019291505056fea264697066735822122074d197d081c046d50f2415fb97a984068f31a499a06452d7fae734798f39bf0464736f6c63430008090033a26469706673582212207782129ac70c97625a5a394266a580852629cb73fd158b2d8fcdd9510a01220764736f6c6343000809003360a060405234801561001057600080fd5b504660018114806100215750806064145b8061002c5750806089145b8061003857508061a4b1145b806100435750806005145b610061577364e8f7c2b4fd33f5e8470f3c6df04974f90fc2ca610077565b735b15cbb40ef056f74130f0e6a1e6fd183b14cdaf5b6001600160a01b0316608052506080516115276100a560003960008181607b015261010e01526115276000f3fe608060405234801561001057600080fd5b50600436106100415760003560e01c80634a4483f814610046578063bcaeecf114610076578063ec155b5f1461009d575b600080fd5b610059610054366004610212565b6100b3565b6040516001600160a01b0390911681526020015b60405180910390f35b6100597f000000000000000000000000000000000000000000000000000000000000000081565b6100a5600481565b60405190815260200161006d565b6040805160028082526060820183526000928392919060208301908036833701905050905082816000815181106100ec576100ec610242565b60200260200101906001600160a01b031690816001600160a01b0316815250507f00000000000000000000000000000000000000000000000000000000000000008160018151811061014057610140610242565b6001600160a01b0392909216602092830291909101820152604080516002808252606082018352600093919290918301908036833701905050905061018760046064610258565b8160008151811061019a5761019a610242565b6020026020010181815250506004816001815181106101bb576101bb610242565b60200260200101818152505081816040516101d590610205565b6101e092919061027d565b604051809103906000f0801580156101fc573d6000803e3d6000fd5b50949350505050565b6111f08061030283390190565b60006020828403121561022457600080fd5b81356001600160a01b038116811461023b57600080fd5b9392505050565b634e487b7160e01b600052603260045260246000fd5b60008282101561027857634e487b7160e01b600052601160045260246000fd5b500390565b604080825283519082018190526000906020906060840190828701845b828110156102bf5781516001600160a01b03168452928401929084019060010161029a565b5050508381038285015284518082528583019183019060005b818110156102f4578351835292840192918401916001016102d8565b509097965050505050505056fe6080604052604051620011f0380380620011f083398101604081905262000026916200042e565b8051825114620000985760405162461bcd60e51b815260206004820152603260248201527f5061796d656e7453706c69747465723a2070617965657320616e6420736861726044820152710cae640d8cadccee8d040dad2e6dac2e8c6d60731b60648201526084015b60405180910390fd5b6000825111620000eb5760405162461bcd60e51b815260206004820152601a60248201527f5061796d656e7453706c69747465723a206e6f2070617965657300000000000060448201526064016200008f565b60005b82518110156200015757620001428382815181106200011157620001116200050c565b60200260200101518383815181106200012e576200012e6200050c565b60200260200101516200016060201b60201c565b806200014e8162000538565b915050620000ee565b50505062000571565b6001600160a01b038216620001cd5760405162461bcd60e51b815260206004820152602c60248201527f5061796d656e7453706c69747465723a206163636f756e74206973207468652060448201526b7a65726f206164647265737360a01b60648201526084016200008f565b600081116200021f5760405162461bcd60e51b815260206004820152601d60248201527f5061796d656e7453706c69747465723a2073686172657320617265203000000060448201526064016200008f565b6001600160a01b038216600090815260026020526040902054156200029b5760405162461bcd60e51b815260206004820152602b60248201527f5061796d656e7453706c69747465723a206163636f756e7420616c726561647960448201526a206861732073686172657360a81b60648201526084016200008f565b60048054600181019091557f8a35acfbc15ff81a39ae7d344fd709f28e8600b4aa8c65c6b64bfe7fe36bd19b0180546001600160a01b0319166001600160a01b0384169081179091556000908152600260205260408120829055546200030390829062000556565b600055604080516001600160a01b0384168152602081018390527f40c340f65e17194d14ddddb073d3c9f888e3cb52b5aae0c6c7706b4fbc905fac910160405180910390a15050565b634e487b7160e01b600052604160045260246000fd5b604051601f8201601f191681016001600160401b03811182821017156200038d576200038d6200034c565b604052919050565b60006001600160401b03821115620003b157620003b16200034c565b5060051b60200190565b600082601f830112620003cd57600080fd5b81516020620003e6620003e08362000395565b62000362565b82815260059290921b840181019181810190868411156200040657600080fd5b8286015b848110156200042357805183529183019183016200040a565b509695505050505050565b600080604083850312156200044257600080fd5b82516001600160401b03808211156200045a57600080fd5b818501915085601f8301126200046f57600080fd5b8151602062000482620003e08362000395565b82815260059290921b84018101918181019089841115620004a257600080fd5b948201945b83861015620004d95785516001600160a01b0381168114620004c95760008081fd5b82529482019490820190620004a7565b91880151919650909350505080821115620004f357600080fd5b506200050285828601620003bb565b9150509250929050565b634e487b7160e01b600052603260045260246000fd5b634e487b7160e01b600052601160045260246000fd5b60006000198214156200054f576200054f62000522565b5060010190565b600082198211156200056c576200056c62000522565b500190565b610c6f80620005816000396000f3fe6080604052600436106100a05760003560e01c80639852595c116100645780639852595c146101d2578063a3f8eace14610208578063c45ac05014610228578063ce7c2ac214610248578063d79779b21461027e578063e33b7de3146102b457600080fd5b806319165587146100ee5780633a98ef3914610110578063406072a91461013457806348b750441461017a5780638b83209b1461019a57600080fd5b366100e9577f6ef95f06320e7a25a04a175ca677b7052bdd97131872c2192525a629f51be77033604080516001600160a01b0390921682523460208301520160405180910390a1005b600080fd5b3480156100fa57600080fd5b5061010e6101093660046109e3565b6102c9565b005b34801561011c57600080fd5b506000545b6040519081526020015b60405180910390f35b34801561014057600080fd5b5061012161014f366004610a00565b6001600160a01b03918216600090815260066020908152604080832093909416825291909152205490565b34801561018657600080fd5b5061010e610195366004610a00565b6103c8565b3480156101a657600080fd5b506101ba6101b5366004610a39565b6104e8565b6040516001600160a01b03909116815260200161012b565b3480156101de57600080fd5b506101216101ed3660046109e3565b6001600160a01b031660009081526003602052604090205490565b34801561021457600080fd5b506101216102233660046109e3565b610518565b34801561023457600080fd5b50610121610243366004610a00565b610560565b34801561025457600080fd5b506101216102633660046109e3565b6001600160a01b031660009081526002602052604090205490565b34801561028a57600080fd5b506101216102993660046109e3565b6001600160a01b031660009081526005602052604090205490565b3480156102c057600080fd5b50600154610121565b6001600160a01b0381166000908152600260205260409020546103075760405162461bcd60e51b81526004016102fe90610a52565b60405180910390fd5b600061031282610518565b9050806103315760405162461bcd60e51b81526004016102fe90610a98565b6001600160a01b03821660009081526003602052604081208054839290610359908490610af9565b9250508190555080600160008282546103729190610af9565b909155506103829050828261063a565b604080516001600160a01b0384168152602081018390527fdf20fd1e76bc69d672e4814fafb2c449bba3a5369d8359adf9e05e6fde87b056910160405180910390a15050565b6001600160a01b0381166000908152600260205260409020546103fd5760405162461bcd60e51b81526004016102fe90610a52565b60006104098383610560565b9050806104285760405162461bcd60e51b81526004016102fe90610a98565b6001600160a01b0380841660009081526006602090815260408083209386168352929052908120805483929061045f908490610af9565b90915550506001600160a01b0383166000908152600560205260408120805483929061048c908490610af9565b9091555061049d9050838383610758565b604080516001600160a01b038481168252602082018490528516917f3be5b7a71e84ed12875d241991c70855ac5817d847039e17a9d895c1ceb0f18a910160405180910390a2505050565b6000600482815481106104fd576104fd610b11565b6000918252602090912001546001600160a01b031692915050565b60008061052460015490565b61052e9047610af9565b90506105598382610554866001600160a01b031660009081526003602052604090205490565b6107aa565b9392505050565b6001600160a01b03821660009081526005602052604081205481906040516370a0823160e01b81523060048201526001600160a01b038616906370a082319060240160206040518083038186803b1580156105ba57600080fd5b505afa1580156105ce573d6000803e3d6000fd5b505050506040513d601f19601f820116820180604052508101906105f29190610b27565b6105fc9190610af9565b6001600160a01b0380861660009081526006602090815260408083209388168352929052205490915061063290849083906107aa565b949350505050565b8047101561068a5760405162461bcd60e51b815260206004820152601d60248201527f416464726573733a20696e73756666696369656e742062616c616e636500000060448201526064016102fe565b6000826001600160a01b03168260405160006040518083038185875af1925050503d80600081146106d7576040519150601f19603f3d011682016040523d82523d6000602084013e6106dc565b606091505b50509050806107535760405162461bcd60e51b815260206004820152603a60248201527f416464726573733a20756e61626c6520746f2073656e642076616c75652c207260448201527f6563697069656e74206d6179206861766520726576657274656400000000000060648201526084016102fe565b505050565b604080516001600160a01b038416602482015260448082018490528251808303909101815260649091019091526020810180516001600160e01b031663a9059cbb60e01b1790526107539084906107e5565b600080546001600160a01b0385168252600260205260408220548391906107d19086610b40565b6107db9190610b5f565b6106329190610b81565b600061083a826040518060400160405280602081526020017f5361666545524332303a206c6f772d6c6576656c2063616c6c206661696c6564815250856001600160a01b03166108b79092919063ffffffff16565b80519091501561075357808060200190518101906108589190610b98565b6107535760405162461bcd60e51b815260206004820152602a60248201527f5361666545524332303a204552433230206f7065726174696f6e20646964206e6044820152691bdd081cdd58d8d9595960b21b60648201526084016102fe565b60606106328484600085856001600160a01b0385163b6109195760405162461bcd60e51b815260206004820152601d60248201527f416464726573733a2063616c6c20746f206e6f6e2d636f6e747261637400000060448201526064016102fe565b600080866001600160a01b031685876040516109359190610bea565b60006040518083038185875af1925050503d8060008114610972576040519150601f19603f3d011682016040523d82523d6000602084013e610977565b606091505b5091509150610987828286610992565b979650505050505050565b606083156109a1575081610559565b8251156109b15782518084602001fd5b8160405162461bcd60e51b81526004016102fe9190610c06565b6001600160a01b03811681146109e057600080fd5b50565b6000602082840312156109f557600080fd5b8135610559816109cb565b60008060408385031215610a1357600080fd5b8235610a1e816109cb565b91506020830135610a2e816109cb565b809150509250929050565b600060208284031215610a4b57600080fd5b5035919050565b60208082526026908201527f5061796d656e7453706c69747465723a206163636f756e7420686173206e6f2060408201526573686172657360d01b606082015260800190565b6020808252602b908201527f5061796d656e7453706c69747465723a206163636f756e74206973206e6f742060408201526a191d59481c185e5b595b9d60aa1b606082015260800190565b634e487b7160e01b600052601160045260246000fd5b60008219821115610b0c57610b0c610ae3565b500190565b634e487b7160e01b600052603260045260246000fd5b600060208284031215610b3957600080fd5b5051919050565b6000816000190483118215151615610b5a57610b5a610ae3565b500290565b600082610b7c57634e487b7160e01b600052601260045260246000fd5b500490565b600082821015610b9357610b93610ae3565b500390565b600060208284031215610baa57600080fd5b8151801515811461055957600080fd5b60005b83811015610bd5578181015183820152602001610bbd565b83811115610be4576000848401525b50505050565b60008251610bfc818460208701610bba565b9190910192915050565b6020815260008251806020840152610c25816040850160208701610bba565b601f01601f1916919091016040019291505056fea2646970667358221220cb71173335b85af5fe6af91faaf469117370529ccf800edbcf2c47ed162a8c4264736f6c63430008090033a2646970667358221220e6b137a1d903be120de5804b068fb0bd7dad1b862e4acd1dbd3e1ace77be86cf64736f6c63430008090033",
  "linkReferences": {},
  "deployedLinkReferences": {}
}