{
  "_format": "hh-sol-artifact-1",
  "contractName": "DSponsor",
  "sourceName": "contracts/DSponsor.sol",
  "abi": [
    {
      "inputs": [
        {
          "internalType": "contract IERC721",
          "name": "ERC721Contract",
          "type": "address"
        },
        {
          "internalType": "string",
          "name": "rulesURI",
          "type": "string"
        },
        {
          "internalType": "address",
          "name": "sponsee",
          "type": "address"
        }
      ],
      "stateMutability": "nonpayable",
      "type": "constructor"
    },
    {
      "inputs": [],
      "name": "NoDataSubmitted",
      "type": "error"
    },
    {
      "inputs": [],
      "name": "SponseeCannotBeZeroAddress",
      "type": "error"
    },
    {
      "inputs": [],
      "name": "StringLengthExceedLimit",
      "type": "error"
    },
    {
      "inputs": [],
      "name": "UnallowedProperty",
      "type": "error"
    },
    {
      "inputs": [],
      "name": "UnallowedSponsorOperation",
      "type": "error"
    },
    {
      "inputs": [],
      "name": "isNotERC721Contract",
      "type": "error"
    },
    {
      "anonymous": false,
      "inputs": [
        {
          "indexed": true,
          "internalType": "uint256",
          "name": "tokenId",
          "type": "uint256"
        },
        {
          "indexed": true,
          "internalType": "string",
          "name": "property",
          "type": "string"
        },
        {
          "indexed": false,
          "internalType": "string",
          "name": "data",
          "type": "string"
        }
      ],
      "name": "NewSponsoData",
      "type": "event"
    },
    {
      "anonymous": false,
      "inputs": [
        {
          "indexed": true,
          "internalType": "uint256",
          "name": "tokenId",
          "type": "uint256"
        },
        {
          "indexed": true,
          "internalType": "string",
          "name": "property",
          "type": "string"
        },
        {
          "indexed": true,
          "internalType": "bool",
          "name": "validated",
          "type": "bool"
        },
        {
          "indexed": false,
          "internalType": "string",
          "name": "data",
          "type": "string"
        },
        {
          "indexed": false,
          "internalType": "string",
          "name": "reason",
          "type": "string"
        }
      ],
      "name": "NewSponsoDataValidation",
      "type": "event"
    },
    {
      "anonymous": false,
      "inputs": [
        {
          "indexed": true,
          "internalType": "string",
          "name": "property",
          "type": "string"
        },
        {
          "indexed": true,
          "internalType": "bool",
          "name": "allowed",
          "type": "bool"
        }
      ],
      "name": "PropertyUpdate",
      "type": "event"
    },
    {
      "anonymous": false,
      "inputs": [
        {
          "indexed": true,
          "internalType": "bytes32",
          "name": "role",
          "type": "bytes32"
        },
        {
          "indexed": true,
          "internalType": "bytes32",
          "name": "previousAdminRole",
          "type": "bytes32"
        },
        {
          "indexed": true,
          "internalType": "bytes32",
          "name": "newAdminRole",
          "type": "bytes32"
        }
      ],
      "name": "RoleAdminChanged",
      "type": "event"
    },
    {
      "anonymous": false,
      "inputs": [
        {
          "indexed": true,
          "internalType": "bytes32",
          "name": "role",
          "type": "bytes32"
        },
        {
          "indexed": true,
          "internalType": "address",
          "name": "account",
          "type": "address"
        },
        {
          "indexed": true,
          "internalType": "address",
          "name": "sender",
          "type": "address"
        }
      ],
      "name": "RoleGranted",
      "type": "event"
    },
    {
      "anonymous": false,
      "inputs": [
        {
          "indexed": true,
          "internalType": "bytes32",
          "name": "role",
          "type": "bytes32"
        },
        {
          "indexed": true,
          "internalType": "address",
          "name": "account",
          "type": "address"
        },
        {
          "indexed": true,
          "internalType": "address",
          "name": "sender",
          "type": "address"
        }
      ],
      "name": "RoleRevoked",
      "type": "event"
    },
    {
      "inputs": [],
      "name": "DEFAULT_ADMIN_ROLE",
      "outputs": [
        {
          "internalType": "bytes32",
          "name": "",
          "type": "bytes32"
        }
      ],
      "stateMutability": "view",
      "type": "function"
    },
    {
      "inputs": [],
      "name": "NFT_CONTRACT",
      "outputs": [
        {
          "internalType": "contract IERC721",
          "name": "",
          "type": "address"
        }
      ],
      "stateMutability": "view",
      "type": "function"
    },
    {
      "inputs": [],
      "name": "RULES_URI",
      "outputs": [
        {
          "internalType": "string",
          "name": "",
          "type": "string"
        }
      ],
      "stateMutability": "view",
      "type": "function"
    },
    {
      "inputs": [],
      "name": "SET_PROPERTIES_ROLE",
      "outputs": [
        {
          "internalType": "bytes32",
          "name": "",
          "type": "bytes32"
        }
      ],
      "stateMutability": "view",
      "type": "function"
    },
    {
      "inputs": [],
      "name": "VALIDATE_ROLE",
      "outputs": [
        {
          "internalType": "bytes32",
          "name": "",
          "type": "bytes32"
        }
      ],
      "stateMutability": "view",
      "type": "function"
    },
    {
      "inputs": [],
      "name": "getAccessContract",
      "outputs": [
        {
          "internalType": "address",
          "name": "",
          "type": "address"
        }
      ],
      "stateMutability": "view",
      "type": "function"
    },
    {
      "inputs": [
        {
          "internalType": "bytes32",
          "name": "role",
          "type": "bytes32"
        }
      ],
      "name": "getRoleAdmin",
      "outputs": [
        {
          "internalType": "bytes32",
          "name": "",
          "type": "bytes32"
        }
      ],
      "stateMutability": "view",
      "type": "function"
    },
    {
      "inputs": [
        {
          "internalType": "uint256",
          "name": "tokenId",
          "type": "uint256"
        },
        {
          "internalType": "string",
          "name": "propertyString",
          "type": "string"
        }
      ],
      "name": "getSponsoData",
      "outputs": [
        {
          "internalType": "string",
          "name": "lastDataValidated",
          "type": "string"
        },
        {
          "internalType": "string",
          "name": "lastDataSubmitted",
          "type": "string"
        },
        {
          "internalType": "string",
          "name": "lastRejectionReason",
          "type": "string"
        }
      ],
      "stateMutability": "view",
      "type": "function"
    },
    {
      "inputs": [
        {
          "internalType": "bytes32",
          "name": "role",
          "type": "bytes32"
        },
        {
          "internalType": "address",
          "name": "account",
          "type": "address"
        }
      ],
      "name": "grantRole",
      "outputs": [],
      "stateMutability": "nonpayable",
      "type": "function"
    },
    {
      "inputs": [
        {
          "internalType": "bytes32",
          "name": "role",
          "type": "bytes32"
        },
        {
          "internalType": "address",
          "name": "account",
          "type": "address"
        }
      ],
      "name": "hasRole",
      "outputs": [
        {
          "internalType": "bool",
          "name": "",
          "type": "bool"
        }
      ],
      "stateMutability": "view",
      "type": "function"
    },
    {
      "inputs": [
        {
          "internalType": "string",
          "name": "propertyString",
          "type": "string"
        }
      ],
      "name": "isAllowedProperty",
      "outputs": [
        {
          "internalType": "bool",
          "name": "",
          "type": "bool"
        }
      ],
      "stateMutability": "view",
      "type": "function"
    },
    {
      "inputs": [
        {
          "internalType": "bytes32",
          "name": "role",
          "type": "bytes32"
        },
        {
          "internalType": "address",
          "name": "account",
          "type": "address"
        }
      ],
      "name": "renounceRole",
      "outputs": [],
      "stateMutability": "nonpayable",
      "type": "function"
    },
    {
      "inputs": [
        {
          "internalType": "bytes32",
          "name": "role",
          "type": "bytes32"
        },
        {
          "internalType": "address",
          "name": "account",
          "type": "address"
        }
      ],
      "name": "revokeRole",
      "outputs": [],
      "stateMutability": "nonpayable",
      "type": "function"
    },
    {
      "inputs": [
        {
          "internalType": "string",
          "name": "propertyString",
          "type": "string"
        },
        {
          "internalType": "bool",
          "name": "allowed",
          "type": "bool"
        }
      ],
      "name": "setProperty",
      "outputs": [],
      "stateMutability": "nonpayable",
      "type": "function"
    },
    {
      "inputs": [
        {
          "internalType": "uint256",
          "name": "tokenId",
          "type": "uint256"
        },
        {
          "internalType": "string",
          "name": "property",
          "type": "string"
        },
        {
          "internalType": "string",
          "name": "data",
          "type": "string"
        }
      ],
      "name": "setSponsoData",
      "outputs": [],
      "stateMutability": "nonpayable",
      "type": "function"
    },
    {
      "inputs": [
        {
          "internalType": "uint256",
          "name": "tokenId",
          "type": "uint256"
        },
        {
          "internalType": "string",
          "name": "property",
          "type": "string"
        },
        {
          "internalType": "bool",
          "name": "validated",
          "type": "bool"
        },
        {
          "internalType": "string",
          "name": "reason",
          "type": "string"
        }
      ],
      "name": "setSponsoDataValidation",
      "outputs": [],
      "stateMutability": "nonpayable",
      "type": "function"
    },
    {
      "inputs": [
        {
          "internalType": "bytes4",
          "name": "interfaceId",
          "type": "bytes4"
        }
      ],
      "name": "supportsInterface",
      "outputs": [
        {
          "internalType": "bool",
          "name": "",
          "type": "bool"
        }
      ],
      "stateMutability": "view",
      "type": "function"
    }
  ],
  "bytecode": "0x60a06040523480156200001157600080fd5b5060405162001b8738038062001b878339810160408190526200003491620003cc565b6001600160a01b0381166200005c5760405163250083d960e01b815260040160405180910390fd5b6040516301ffc9a760e01b81526380ac58cd60e01b60048201526001600160a01b038416906301ffc9a79060240160206040518083038186803b158015620000a357600080fd5b505afa925050508015620000d6575060408051601f3d908101601f19168201909252620000d391810190620004d3565b60015b62000126573d80801562000107576040519150601f19603f3d011682016040523d82523d6000602084013e6200010c565b606091505b50604051637337a87360e11b815260040160405180910390fd5b506001600160a01b038316608052815162000149906001906020850190620002e5565b5062000157600082620001b8565b620001837f782e4d852a9ccc8499483245b0071b6a09b1f2f570b62718368d0db450f117be82620001b8565b620001af7f7e974f0f1fcc17efde2f86b6bc87a2472ba1e48e4763b18496c6d527de5097c382620001b8565b5050506200053b565b620001c48282620001c8565b5050565b6000828152602081815260408083206001600160a01b038516845290915290205460ff16620001c4576000828152602081815260408083206001600160a01b03851684529091529020805460ff19166001179055620002266200026a565b6001600160a01b0316816001600160a01b0316837f2f8788117e7eff1d82e926ec794901d17c78024a50270940304540a733656f0d60405160405180910390a45050565b6000620002816200028660201b620008de1760201c565b905090565b600033301415620002df57600080368080601f0160208091040260200160405190810160405280939291908181526020018383808284376000920191909152505050503601516001600160a01b03169150620002e29050565b50335b90565b828054620002f390620004fe565b90600052602060002090601f01602090048101928262000317576000855562000362565b82601f106200033257805160ff191683800117855562000362565b8280016001018555821562000362579182015b828111156200036257825182559160200191906001019062000345565b506200037092915062000374565b5090565b5b8082111562000370576000815560010162000375565b6001600160a01b0381168114620003a157600080fd5b50565b634e487b7160e01b600052604160045260246000fd5b8051620003c7816200038b565b919050565b600080600060608486031215620003e257600080fd5b8351620003ef816200038b565b602085810151919450906001600160401b03808211156200040f57600080fd5b818701915087601f8301126200042457600080fd5b815181811115620004395762000439620003a4565b604051601f8201601f19908116603f01168101908382118183101715620004645762000464620003a4565b816040528281528a868487010111156200047d57600080fd5b600093505b82841015620004a1578484018601518185018701529285019262000482565b82841115620004b35760008684830101525b809750505050505050620004ca60408501620003ba565b90509250925092565b600060208284031215620004e657600080fd5b81518015158114620004f757600080fd5b9392505050565b600181811c908216806200051357607f821691505b602082108114156200053557634e487b7160e01b600052602260045260246000fd5b50919050565b60805161162262000565600039600081816101110152818161019e015261033f01526116226000f3fe608060405234801561001057600080fd5b506004361061010a5760003560e01c806336568abe116100a25780639aaeca9c116100715780639aaeca9c14610279578063a217fddf146102a0578063d547741f146102a8578063d882be6a146102bb578063f40f5124146102ce57600080fd5b806336568abe1461022b578063885f21821461023e57806391d148541461025157806396c28d901461026457600080fd5b80631fda9a02116100de5780631fda9a0214610199578063248a9ca3146101c05780632a36f582146101f15780632f2ff15d1461021857600080fd5b8062e4612f1461010f57806301ffc9a71461014e5780630ac4dd00146101715780630ceea8d914610186575b600080fd5b7f00000000000000000000000000000000000000000000000000000000000000005b6040516001600160a01b0390911681526020015b60405180910390f35b61016161015c3660046110b6565b6102f0565b6040519015158152602001610145565b61018461017f366004611183565b610327565b005b6101616101943660046111f0565b610460565b6101317f000000000000000000000000000000000000000000000000000000000000000081565b6101e36101ce36600461122d565b60009081526020819052604090206001015490565b604051908152602001610145565b6101e37f782e4d852a9ccc8499483245b0071b6a09b1f2f570b62718368d0db450f117be81565b61018461022636600461125b565b610483565b61018461023936600461125b565b6104ad565b61018461024c3660046112a0565b610540565b61016161025f36600461125b565b610574565b61026c61059d565b604051610145919061134a565b6101e37f7e974f0f1fcc17efde2f86b6bc87a2472ba1e48e4763b18496c6d527de5097c381565b6101e3600081565b6101846102b636600461125b565b61062b565b6101846102c936600461135d565b610650565b6102e16102dc3660046113db565b6106f3565b60405161014593929190611422565b60006001600160e01b03198216637965db0b60e01b148061032157506301ffc9a760e01b6001600160e01b03198316145b92915050565b6040516331a9108f60e11b81526004810184905283907f00000000000000000000000000000000000000000000000000000000000000006001600160a01b031690636352211e9060240160206040518083038186803b15801561038957600080fd5b505afa15801561039d573d6000803e3d6000fd5b505050506040513d601f19601f820116820180604052508101906103c1919061145b565b6001600160a01b03166103d261093b565b6001600160a01b0316146103f957604051633c16e2ed60e01b815260040160405180910390fd5b8251602084012061040c9085908461094a565b8260405161041a9190611478565b6040518091039020847f1d68cb7b7559aa503c2cf3f6d1641ade3a8ecdded997ce38ea6783b7acd889a284604051610452919061134a565b60405180910390a350505050565b805160208201206000906103219060009081526002602052604090205460ff1690565b60008281526020819052604090206001015461049e81610ab0565b6104a88383610ac4565b505050565b6104b561093b565b6001600160a01b0316816001600160a01b0316146105325760405162461bcd60e51b815260206004820152602f60248201527f416363657373436f6e74726f6c3a2063616e206f6e6c792072656e6f756e636560448201526e103937b632b9903337b91039b2b63360891b60648201526084015b60405180910390fd5b61053c8282610b49565b5050565b7f782e4d852a9ccc8499483245b0071b6a09b1f2f570b62718368d0db450f117be61056a81610ab0565b6104a88383610bcc565b6000918252602082815260408084206001600160a01b0393909316845291905290205460ff1690565b600180546105aa90611494565b80601f01602080910402602001604051908101604052809291908181526020018280546105d690611494565b80156106235780601f106105f857610100808354040283529160200191610623565b820191906000526020600020905b81548152906001019060200180831161060657829003601f168201915b505050505081565b60008281526020819052604090206001015461064681610ab0565b6104a88383610b49565b7f7e974f0f1fcc17efde2f86b6bc87a2472ba1e48e4763b18496c6d527de5097c361067a81610ab0565b60606106968661068f87805160209091012090565b8686610c3f565b9050831515856040516106a99190611478565b6040518091039020877fd579c2e0252e9a64b3893e398b2f602f60abbd34dc014c65475837596dfbe0d184876040516106e39291906114cf565b60405180910390a4505050505050565b600082815260036020526040812060609182918291908161071987805160209091012090565b8152602001908152602001600020905080600001805461073890611494565b80601f016020809104026020016040519081016040528092919081815260200182805461076490611494565b80156107b15780601f10610786576101008083540402835291602001916107b1565b820191906000526020600020905b81548152906001019060200180831161079457829003601f168201915b505050505093508060010180546107c790611494565b80601f01602080910402602001604051908101604052809291908181526020018280546107f390611494565b80156108405780601f1061081557610100808354040283529160200191610840565b820191906000526020600020905b81548152906001019060200180831161082357829003601f168201915b5050505050925080600201805461085690611494565b80601f016020809104026020016040519081016040528092919081815260200182805461088290611494565b80156108cf5780601f106108a4576101008083540402835291602001916108cf565b820191906000526020600020905b8154815290600101906020018083116108b257829003601f168201915b50505050509150509250925092565b60003330141561093557600080368080601f0160208091040260200160405190810160405280939291908181526020018383808284376000920191909152505050503601516001600160a01b031691506109389050565b50335b90565b60006109456108de565b905090565b600082815260026020526040902054829060ff1661097b5760405163ae971eb160e01b815260040160405180910390fd5b60008481526003602090815260408083208684529091528120805461099f90611494565b80601f01602080910402602001604051908101604052809291908181526020018280546109cb90611494565b8015610a185780601f106109ed57610100808354040283529160200191610a18565b820191906000526020600020905b8154815290600101906020018083116109fb57829003601f168201915b50506040805160608101825285815260208082018a9052825180820184526000808252838501919091528c8152600382528381208c8252825292909220815180519798509196909550610a71945085935091019061101d565b506020828101518051610a8a926001850192019061101d565b5060408201518051610aa691600284019160209091019061101d565b5050505050505050565b610ac181610abc61093b565b610e16565b50565b610ace8282610574565b61053c576000828152602081815260408083206001600160a01b03851684529091529020805460ff19166001179055610b0561093b565b6001600160a01b0316816001600160a01b0316837f2f8788117e7eff1d82e926ec794901d17c78024a50270940304540a733656f0d60405160405180910390a45050565b610b538282610574565b1561053c576000828152602081815260408083206001600160a01b03851684529091529020805460ff19169055610b8861093b565b6001600160a01b0316816001600160a01b0316837ff6391f5c32d9c69d2a47ea670b442974b53935d1edc7fd64eb21e047a839171b60405160405180910390a45050565b81511561053c5781516020830120610bfa906000908152600260205260409020805460ff1916831515179055565b80151582604051610c0b9190611478565b604051908190038120907f74cc69a029cc22a209536d643ca1ab46003e98737e46a5bb7bbd80c63fc8d3d190600090a35050565b606083610c5b8160009081526002602052604090205460ff1690565b610c785760405163ae971eb160e01b815260040160405180910390fd5b600086815260036020908152604080832088845290915281206001018054610c9f90611494565b80601f0160208091040260200160405190810160405280929190818152602001828054610ccb90611494565b8015610d185780601f10610ced57610100808354040283529160200191610d18565b820191906000526020600020905b815481529060010190602001808311610cfb57829003601f168201915b50505050509050805160001415610d425760405163b3bbfdb760e01b815260040160405180910390fd5b8415610ddd576040805160608101825282815281516020818101845260008083528184019290925283518082018552828152838501528a8252600381528382208a835281529290208151805192939192610d9f928492019061101d565b506020828101518051610db8926001850192019061101d565b5060408201518051610dd491600284019160209091019061101d565b50905050610e0c565b600087815260036020908152604080832089845282529091208551610e0a9260029092019187019061101d565b505b9695505050505050565b610e208282610574565b61053c57610e38816001600160a01b03166014610e7a565b610e43836020610e7a565b604051602001610e549291906114fd565b60408051601f198184030181529082905262461bcd60e51b82526105299160040161134a565b60606000610e89836002611588565b610e949060026115a7565b67ffffffffffffffff811115610eac57610eac6110e0565b6040519080825280601f01601f191660200182016040528015610ed6576020820181803683370190505b509050600360fc1b81600081518110610ef157610ef16115bf565b60200101906001600160f81b031916908160001a905350600f60fb1b81600181518110610f2057610f206115bf565b60200101906001600160f81b031916908160001a9053506000610f44846002611588565b610f4f9060016115a7565b90505b6001811115610fc7576f181899199a1a9b1b9c1cb0b131b232b360811b85600f1660108110610f8357610f836115bf565b1a60f81b828281518110610f9957610f996115bf565b60200101906001600160f81b031916908160001a90535060049490941c93610fc0816115d5565b9050610f52565b5083156110165760405162461bcd60e51b815260206004820181905260248201527f537472696e67733a20686578206c656e67746820696e73756666696369656e746044820152606401610529565b9392505050565b82805461102990611494565b90600052602060002090601f01602090048101928261104b5760008555611091565b82601f1061106457805160ff1916838001178555611091565b82800160010185558215611091579182015b82811115611091578251825591602001919060010190611076565b5061109d9291506110a1565b5090565b5b8082111561109d57600081556001016110a2565b6000602082840312156110c857600080fd5b81356001600160e01b03198116811461101657600080fd5b634e487b7160e01b600052604160045260246000fd5b600082601f83011261110757600080fd5b813567ffffffffffffffff80821115611122576111226110e0565b604051601f8301601f19908116603f0116810190828211818310171561114a5761114a6110e0565b8160405283815286602085880101111561116357600080fd5b836020870160208301376000602085830101528094505050505092915050565b60008060006060848603121561119857600080fd5b83359250602084013567ffffffffffffffff808211156111b757600080fd5b6111c3878388016110f6565b935060408601359150808211156111d957600080fd5b506111e6868287016110f6565b9150509250925092565b60006020828403121561120257600080fd5b813567ffffffffffffffff81111561121957600080fd5b611225848285016110f6565b949350505050565b60006020828403121561123f57600080fd5b5035919050565b6001600160a01b0381168114610ac157600080fd5b6000806040838503121561126e57600080fd5b82359150602083013561128081611246565b809150509250929050565b8035801515811461129b57600080fd5b919050565b600080604083850312156112b357600080fd5b823567ffffffffffffffff8111156112ca57600080fd5b6112d6858286016110f6565b9250506112e56020840161128b565b90509250929050565b60005b838110156113095781810151838201526020016112f1565b83811115611318576000848401525b50505050565b600081518084526113368160208601602086016112ee565b601f01601f19169290920160200192915050565b602081526000611016602083018461131e565b6000806000806080858703121561137357600080fd5b84359350602085013567ffffffffffffffff8082111561139257600080fd5b61139e888389016110f6565b94506113ac6040880161128b565b935060608701359150808211156113c257600080fd5b506113cf878288016110f6565b91505092959194509250565b600080604083850312156113ee57600080fd5b82359150602083013567ffffffffffffffff81111561140c57600080fd5b611418858286016110f6565b9150509250929050565b606081526000611435606083018661131e565b8281036020840152611447818661131e565b90508281036040840152610e0c818561131e565b60006020828403121561146d57600080fd5b815161101681611246565b6000825161148a8184602087016112ee565b9190910192915050565b600181811c908216806114a857607f821691505b602082108114156114c957634e487b7160e01b600052602260045260246000fd5b50919050565b6040815260006114e2604083018561131e565b82810360208401526114f4818561131e565b95945050505050565b7f416363657373436f6e74726f6c3a206163636f756e74200000000000000000008152600083516115358160178501602088016112ee565b7001034b99036b4b9b9b4b733903937b6329607d1b60179184019182015283516115668160288401602088016112ee565b01602801949350505050565b634e487b7160e01b600052601160045260246000fd5b60008160001904831182151516156115a2576115a2611572565b500290565b600082198211156115ba576115ba611572565b500190565b634e487b7160e01b600052603260045260246000fd5b6000816115e4576115e4611572565b50600019019056fea26469706673582212200487fdb1536d8806df723214b5c8f8ea24c966a319056843302ee20e4da1ad7464736f6c63430008090033",
  "linkReferences": {},
  "deployedLinkReferences": {}
}