{
  "_format": "hh-sol-artifact-1",
  "contractName": "DSponsor",
  "sourceName": "contracts/DSponsor.sol",
  "abi": [
    {
      "inputs": [
        {
          "internalType": "contract IERC721",
          "name": "ERC721Contract",
          "type": "address"
        },
        {
          "internalType": "string",
          "name": "rulesURI",
          "type": "string"
        },
        {
          "internalType": "address",
          "name": "sponsee",
          "type": "address"
        }
      ],
      "stateMutability": "nonpayable",
      "type": "constructor"
    },
    {
      "inputs": [],
      "name": "NoDataSubmitted",
      "type": "error"
    },
    {
      "inputs": [],
      "name": "SponseeCannotBeZeroAddress",
      "type": "error"
    },
    {
      "inputs": [],
      "name": "StringLengthExceedLimit",
      "type": "error"
    },
    {
      "inputs": [],
      "name": "UnallowedProperty",
      "type": "error"
    },
    {
      "inputs": [],
      "name": "UnallowedSponsorOperation",
      "type": "error"
    },
    {
      "inputs": [],
      "name": "isNotERC721Contract",
      "type": "error"
    },
    {
      "anonymous": false,
      "inputs": [
        {
          "indexed": true,
          "internalType": "uint256",
          "name": "tokenId",
          "type": "uint256"
        },
        {
          "indexed": true,
          "internalType": "string",
          "name": "property",
          "type": "string"
        },
        {
          "indexed": false,
          "internalType": "string",
          "name": "data",
          "type": "string"
        }
      ],
      "name": "NewSponsoData",
      "type": "event"
    },
    {
      "anonymous": false,
      "inputs": [
        {
          "indexed": true,
          "internalType": "uint256",
          "name": "tokenId",
          "type": "uint256"
        },
        {
          "indexed": true,
          "internalType": "string",
          "name": "property",
          "type": "string"
        },
        {
          "indexed": true,
          "internalType": "bool",
          "name": "validated",
          "type": "bool"
        },
        {
          "indexed": false,
          "internalType": "string",
          "name": "data",
          "type": "string"
        },
        {
          "indexed": false,
          "internalType": "string",
          "name": "reason",
          "type": "string"
        }
      ],
      "name": "NewSponsoDataValidation",
      "type": "event"
    },
    {
      "anonymous": false,
      "inputs": [
        {
          "indexed": true,
          "internalType": "string",
          "name": "property",
          "type": "string"
        },
        {
          "indexed": true,
          "internalType": "bool",
          "name": "allowed",
          "type": "bool"
        }
      ],
      "name": "PropertyUpdate",
      "type": "event"
    },
    {
      "anonymous": false,
      "inputs": [
        {
          "indexed": true,
          "internalType": "bytes32",
          "name": "role",
          "type": "bytes32"
        },
        {
          "indexed": true,
          "internalType": "bytes32",
          "name": "previousAdminRole",
          "type": "bytes32"
        },
        {
          "indexed": true,
          "internalType": "bytes32",
          "name": "newAdminRole",
          "type": "bytes32"
        }
      ],
      "name": "RoleAdminChanged",
      "type": "event"
    },
    {
      "anonymous": false,
      "inputs": [
        {
          "indexed": true,
          "internalType": "bytes32",
          "name": "role",
          "type": "bytes32"
        },
        {
          "indexed": true,
          "internalType": "address",
          "name": "account",
          "type": "address"
        },
        {
          "indexed": true,
          "internalType": "address",
          "name": "sender",
          "type": "address"
        }
      ],
      "name": "RoleGranted",
      "type": "event"
    },
    {
      "anonymous": false,
      "inputs": [
        {
          "indexed": true,
          "internalType": "bytes32",
          "name": "role",
          "type": "bytes32"
        },
        {
          "indexed": true,
          "internalType": "address",
          "name": "account",
          "type": "address"
        },
        {
          "indexed": true,
          "internalType": "address",
          "name": "sender",
          "type": "address"
        }
      ],
      "name": "RoleRevoked",
      "type": "event"
    },
    {
      "anonymous": false,
      "inputs": [
        {
          "indexed": false,
          "internalType": "uint256",
          "name": "start",
          "type": "uint256"
        },
        {
          "indexed": false,
          "internalType": "uint256",
          "name": "end",
          "type": "uint256"
        }
      ],
      "name": "ValidityPeriodUpdate",
      "type": "event"
    },
    {
      "inputs": [],
      "name": "DEFAULT_ADMIN_ROLE",
      "outputs": [
        {
          "internalType": "bytes32",
          "name": "",
          "type": "bytes32"
        }
      ],
      "stateMutability": "view",
      "type": "function"
    },
    {
      "inputs": [],
      "name": "NFT_CONTRACT",
      "outputs": [
        {
          "internalType": "contract IERC721",
          "name": "",
          "type": "address"
        }
      ],
      "stateMutability": "view",
      "type": "function"
    },
    {
      "inputs": [],
      "name": "RULES_URI",
      "outputs": [
        {
          "internalType": "string",
          "name": "",
          "type": "string"
        }
      ],
      "stateMutability": "view",
      "type": "function"
    },
    {
      "inputs": [],
      "name": "SET_PERIOD_ROLE",
      "outputs": [
        {
          "internalType": "bytes32",
          "name": "",
          "type": "bytes32"
        }
      ],
      "stateMutability": "view",
      "type": "function"
    },
    {
      "inputs": [],
      "name": "SET_PROPERTIES_ROLE",
      "outputs": [
        {
          "internalType": "bytes32",
          "name": "",
          "type": "bytes32"
        }
      ],
      "stateMutability": "view",
      "type": "function"
    },
    {
      "inputs": [],
      "name": "VALIDATE_ROLE",
      "outputs": [
        {
          "internalType": "bytes32",
          "name": "",
          "type": "bytes32"
        }
      ],
      "stateMutability": "view",
      "type": "function"
    },
    {
      "inputs": [],
      "name": "endPeriod",
      "outputs": [
        {
          "internalType": "uint256",
          "name": "",
          "type": "uint256"
        }
      ],
      "stateMutability": "view",
      "type": "function"
    },
    {
      "inputs": [],
      "name": "getAccessContract",
      "outputs": [
        {
          "internalType": "address",
          "name": "",
          "type": "address"
        }
      ],
      "stateMutability": "view",
      "type": "function"
    },
    {
      "inputs": [],
      "name": "getEndPeriod",
      "outputs": [
        {
          "internalType": "uint256",
          "name": "",
          "type": "uint256"
        }
      ],
      "stateMutability": "view",
      "type": "function"
    },
    {
      "inputs": [
        {
          "internalType": "bytes32",
          "name": "role",
          "type": "bytes32"
        }
      ],
      "name": "getRoleAdmin",
      "outputs": [
        {
          "internalType": "bytes32",
          "name": "",
          "type": "bytes32"
        }
      ],
      "stateMutability": "view",
      "type": "function"
    },
    {
      "inputs": [
        {
          "internalType": "uint256",
          "name": "tokenId",
          "type": "uint256"
        },
        {
          "internalType": "string",
          "name": "propertyString",
          "type": "string"
        }
      ],
      "name": "getSponsoData",
      "outputs": [
        {
          "internalType": "string",
          "name": "lastDataValidated",
          "type": "string"
        },
        {
          "internalType": "string",
          "name": "lastDataSubmitted",
          "type": "string"
        },
        {
          "internalType": "string",
          "name": "lastRejectionReason",
          "type": "string"
        }
      ],
      "stateMutability": "view",
      "type": "function"
    },
    {
      "inputs": [],
      "name": "getStartPeriod",
      "outputs": [
        {
          "internalType": "uint256",
          "name": "",
          "type": "uint256"
        }
      ],
      "stateMutability": "view",
      "type": "function"
    },
    {
      "inputs": [
        {
          "internalType": "bytes32",
          "name": "role",
          "type": "bytes32"
        },
        {
          "internalType": "address",
          "name": "account",
          "type": "address"
        }
      ],
      "name": "grantRole",
      "outputs": [],
      "stateMutability": "nonpayable",
      "type": "function"
    },
    {
      "inputs": [
        {
          "internalType": "bytes32",
          "name": "role",
          "type": "bytes32"
        },
        {
          "internalType": "address",
          "name": "account",
          "type": "address"
        }
      ],
      "name": "hasRole",
      "outputs": [
        {
          "internalType": "bool",
          "name": "",
          "type": "bool"
        }
      ],
      "stateMutability": "view",
      "type": "function"
    },
    {
      "inputs": [
        {
          "internalType": "string",
          "name": "propertyString",
          "type": "string"
        }
      ],
      "name": "isAllowedProperty",
      "outputs": [
        {
          "internalType": "bool",
          "name": "",
          "type": "bool"
        }
      ],
      "stateMutability": "view",
      "type": "function"
    },
    {
      "inputs": [
        {
          "internalType": "bytes32",
          "name": "role",
          "type": "bytes32"
        },
        {
          "internalType": "address",
          "name": "account",
          "type": "address"
        }
      ],
      "name": "renounceRole",
      "outputs": [],
      "stateMutability": "nonpayable",
      "type": "function"
    },
    {
      "inputs": [
        {
          "internalType": "bytes32",
          "name": "role",
          "type": "bytes32"
        },
        {
          "internalType": "address",
          "name": "account",
          "type": "address"
        }
      ],
      "name": "revokeRole",
      "outputs": [],
      "stateMutability": "nonpayable",
      "type": "function"
    },
    {
      "inputs": [
        {
          "internalType": "string",
          "name": "propertyString",
          "type": "string"
        },
        {
          "internalType": "bool",
          "name": "allowed",
          "type": "bool"
        }
      ],
      "name": "setProperty",
      "outputs": [],
      "stateMutability": "nonpayable",
      "type": "function"
    },
    {
      "inputs": [
        {
          "internalType": "uint256",
          "name": "tokenId",
          "type": "uint256"
        },
        {
          "internalType": "string",
          "name": "property",
          "type": "string"
        },
        {
          "internalType": "string",
          "name": "data",
          "type": "string"
        }
      ],
      "name": "setSponsoData",
      "outputs": [],
      "stateMutability": "nonpayable",
      "type": "function"
    },
    {
      "inputs": [
        {
          "internalType": "uint256",
          "name": "tokenId",
          "type": "uint256"
        },
        {
          "internalType": "string",
          "name": "property",
          "type": "string"
        },
        {
          "internalType": "bool",
          "name": "validated",
          "type": "bool"
        },
        {
          "internalType": "string",
          "name": "reason",
          "type": "string"
        }
      ],
      "name": "setSponsoDataValidation",
      "outputs": [],
      "stateMutability": "nonpayable",
      "type": "function"
    },
    {
      "inputs": [
        {
          "internalType": "uint256",
          "name": "start",
          "type": "uint256"
        },
        {
          "internalType": "uint256",
          "name": "end",
          "type": "uint256"
        }
      ],
      "name": "setValidityPeriod",
      "outputs": [],
      "stateMutability": "nonpayable",
      "type": "function"
    },
    {
      "inputs": [],
      "name": "startPeriod",
      "outputs": [
        {
          "internalType": "uint256",
          "name": "",
          "type": "uint256"
        }
      ],
      "stateMutability": "view",
      "type": "function"
    },
    {
      "inputs": [
        {
          "internalType": "bytes4",
          "name": "interfaceId",
          "type": "bytes4"
        }
      ],
      "name": "supportsInterface",
      "outputs": [
        {
          "internalType": "bool",
          "name": "",
          "type": "bool"
        }
      ],
      "stateMutability": "view",
      "type": "function"
    }
  ],
  "bytecode": "0x60a06040523480156200001157600080fd5b5060405162001cee38038062001cee8339810160408190526200003491620003f8565b6001600160a01b0381166200005c5760405163250083d960e01b815260040160405180910390fd5b6040516301ffc9a760e01b81526380ac58cd60e01b60048201526001600160a01b038416906301ffc9a79060240160206040518083038186803b158015620000a357600080fd5b505afa925050508015620000d6575060408051601f3d908101601f19168201909252620000d391810190620004ff565b60015b62000126573d80801562000107576040519150601f19603f3d011682016040523d82523d6000602084013e6200010c565b606091505b50604051637337a87360e11b815260040160405180910390fd5b506001600160a01b03831660805281516200014990600190602085019062000311565b5062000157600082620001e4565b620001837f782e4d852a9ccc8499483245b0071b6a09b1f2f570b62718368d0db450f117be82620001e4565b620001af7f599e269536f523e301c8cce8f92a305641fa41e96a39779f7fa111316dca0e8c82620001e4565b620001db7f7e974f0f1fcc17efde2f86b6bc87a2472ba1e48e4763b18496c6d527de5097c382620001e4565b50505062000567565b620001f08282620001f4565b5050565b6000828152602081815260408083206001600160a01b038516845290915290205460ff16620001f0576000828152602081815260408083206001600160a01b03851684529091529020805460ff191660011790556200025262000296565b6001600160a01b0316816001600160a01b0316837f2f8788117e7eff1d82e926ec794901d17c78024a50270940304540a733656f0d60405160405180910390a45050565b6000620002ad620002b260201b620009b01760201c565b905090565b6000333014156200030b57600080368080601f0160208091040260200160405190810160405280939291908181526020018383808284376000920191909152505050503601516001600160a01b031691506200030e9050565b50335b90565b8280546200031f906200052a565b90600052602060002090601f0160209004810192826200034357600085556200038e565b82601f106200035e57805160ff19168380011785556200038e565b828001600101855582156200038e579182015b828111156200038e57825182559160200191906001019062000371565b506200039c929150620003a0565b5090565b5b808211156200039c5760008155600101620003a1565b6001600160a01b0381168114620003cd57600080fd5b50565b634e487b7160e01b600052604160045260246000fd5b8051620003f381620003b7565b919050565b6000806000606084860312156200040e57600080fd5b83516200041b81620003b7565b602085810151919450906001600160401b03808211156200043b57600080fd5b818701915087601f8301126200045057600080fd5b815181811115620004655762000465620003d0565b604051601f8201601f19908116603f01168101908382118183101715620004905762000490620003d0565b816040528281528a86848701011115620004a957600080fd5b600093505b82841015620004cd5784840186015181850187015292850192620004ae565b82841115620004df5760008684830101525b809750505050505050620004f660408501620003e6565b90509250925092565b6000602082840312156200051257600080fd5b815180151581146200052357600080fd5b9392505050565b600181811c908216806200053f57607f821691505b602082108114156200056157634e487b7160e01b600052602260045260246000fd5b50919050565b60805161175d6200059160003960008181610153015281816101e001526103dd015261175d6000f3fe608060405234801561001057600080fd5b506004361061014c5760003560e01c80635faa65ff116100c3578063a5ada0551161007c578063a5ada05514610304578063d547741f1461032b578063d87db30f1461033e578063d882be6a14610346578063e134aa1314610359578063f40f51241461036c57600080fd5b80635faa65ff14610291578063885f21821461029a57806391d14854146102ad57806396c28d90146102c05780639aaeca9c146102d5578063a217fddf146102fc57600080fd5b8063248a9ca311610115578063248a9ca3146102025780632a36f582146102335780632f2ff15d1461025a57806330bfb9bb1461026d57806336568abe146102765780633a3436231461028957600080fd5b8062e4612f1461015157806301ffc9a7146101905780630ac4dd00146101b35780630ceea8d9146101c85780631fda9a02146101db575b600080fd5b7f00000000000000000000000000000000000000000000000000000000000000005b6040516001600160a01b0390911681526020015b60405180910390f35b6101a361019e3660046111cf565b61038e565b6040519015158152602001610187565b6101c66101c136600461129c565b6103c5565b005b6101a36101d6366004611309565b6104fe565b6101737f000000000000000000000000000000000000000000000000000000000000000081565b610225610210366004611346565b60009081526020819052604090206001015490565b604051908152602001610187565b6102257f782e4d852a9ccc8499483245b0071b6a09b1f2f570b62718368d0db450f117be81565b6101c6610268366004611374565b610521565b61022560025481565b6101c6610284366004611374565b61054b565b600354610225565b61022560035481565b6101c66102a83660046113b9565b6105de565b6101a36102bb366004611374565b610612565b6102c861063b565b6040516101879190611463565b6102257f7e974f0f1fcc17efde2f86b6bc87a2472ba1e48e4763b18496c6d527de5097c381565b610225600081565b6102257f599e269536f523e301c8cce8f92a305641fa41e96a39779f7fa111316dca0e8c81565b6101c6610339366004611374565b6106c9565b600254610225565b6101c6610354366004611476565b6106ee565b6101c66103673660046114f4565b610791565b61037f61037a366004611516565b6107c5565b6040516101879392919061155d565b60006001600160e01b03198216637965db0b60e01b14806103bf57506301ffc9a760e01b6001600160e01b03198316145b92915050565b6040516331a9108f60e11b81526004810184905283907f00000000000000000000000000000000000000000000000000000000000000006001600160a01b031690636352211e9060240160206040518083038186803b15801561042757600080fd5b505afa15801561043b573d6000803e3d6000fd5b505050506040513d601f19601f8201168201806040525081019061045f9190611596565b6001600160a01b0316610470610a0d565b6001600160a01b03161461049757604051633c16e2ed60e01b815260040160405180910390fd5b825160208401206104aa90859084610a1c565b826040516104b891906115b3565b6040518091039020847f1d68cb7b7559aa503c2cf3f6d1641ade3a8ecdded997ce38ea6783b7acd889a2846040516104f09190611463565b60405180910390a350505050565b805160208201206000906103bf9060009081526004602052604090205460ff1690565b60008281526020819052604090206001015461053c81610b82565b6105468383610b96565b505050565b610553610a0d565b6001600160a01b0316816001600160a01b0316146105d05760405162461bcd60e51b815260206004820152602f60248201527f416363657373436f6e74726f6c3a2063616e206f6e6c792072656e6f756e636560448201526e103937b632b9903337b91039b2b63360891b60648201526084015b60405180910390fd5b6105da8282610c1b565b5050565b7f782e4d852a9ccc8499483245b0071b6a09b1f2f570b62718368d0db450f117be61060881610b82565b6105468383610c9e565b6000918252602082815260408084206001600160a01b0393909316845291905290205460ff1690565b60018054610648906115cf565b80601f0160208091040260200160405190810160405280929190818152602001828054610674906115cf565b80156106c15780601f10610696576101008083540402835291602001916106c1565b820191906000526020600020905b8154815290600101906020018083116106a457829003601f168201915b505050505081565b6000828152602081905260409020600101546106e481610b82565b6105468383610c1b565b7f7e974f0f1fcc17efde2f86b6bc87a2472ba1e48e4763b18496c6d527de5097c361071881610b82565b60606107348661072d87805160209091012090565b8686610d11565b90508315158560405161074791906115b3565b6040518091039020877fd579c2e0252e9a64b3893e398b2f602f60abbd34dc014c65475837596dfbe0d1848760405161078192919061160a565b60405180910390a4505050505050565b7f599e269536f523e301c8cce8f92a305641fa41e96a39779f7fa111316dca0e8c6107bb81610b82565b6105468383610ee8565b60008281526005602052604081206060918291829190816107eb87805160209091012090565b8152602001908152602001600020905080600001805461080a906115cf565b80601f0160208091040260200160405190810160405280929190818152602001828054610836906115cf565b80156108835780601f1061085857610100808354040283529160200191610883565b820191906000526020600020905b81548152906001019060200180831161086657829003601f168201915b50505050509350806001018054610899906115cf565b80601f01602080910402602001604051908101604052809291908181526020018280546108c5906115cf565b80156109125780601f106108e757610100808354040283529160200191610912565b820191906000526020600020905b8154815290600101906020018083116108f557829003601f168201915b50505050509250806002018054610928906115cf565b80601f0160208091040260200160405190810160405280929190818152602001828054610954906115cf565b80156109a15780601f10610976576101008083540402835291602001916109a1565b820191906000526020600020905b81548152906001019060200180831161098457829003601f168201915b50505050509150509250925092565b600033301415610a0757600080368080601f0160208091040260200160405190810160405280939291908181526020018383808284376000920191909152505050503601516001600160a01b03169150610a0a9050565b50335b90565b6000610a176109b0565b905090565b600082815260046020526040902054829060ff16610a4d5760405163ae971eb160e01b815260040160405180910390fd5b600084815260056020908152604080832086845290915281208054610a71906115cf565b80601f0160208091040260200160405190810160405280929190818152602001828054610a9d906115cf565b8015610aea5780601f10610abf57610100808354040283529160200191610aea565b820191906000526020600020905b815481529060010190602001808311610acd57829003601f168201915b50506040805160608101825285815260208082018a9052825180820184526000808252838501919091528c8152600582528381208c8252825292909220815180519798509196909550610b439450859350910190611136565b506020828101518051610b5c9260018501920190611136565b5060408201518051610b78916002840191602090910190611136565b5050505050505050565b610b9381610b8e610a0d565b610f2f565b50565b610ba08282610612565b6105da576000828152602081815260408083206001600160a01b03851684529091529020805460ff19166001179055610bd7610a0d565b6001600160a01b0316816001600160a01b0316837f2f8788117e7eff1d82e926ec794901d17c78024a50270940304540a733656f0d60405160405180910390a45050565b610c258282610612565b156105da576000828152602081815260408083206001600160a01b03851684529091529020805460ff19169055610c5a610a0d565b6001600160a01b0316816001600160a01b0316837ff6391f5c32d9c69d2a47ea670b442974b53935d1edc7fd64eb21e047a839171b60405160405180910390a45050565b8151156105da5781516020830120610ccc906000908152600460205260409020805460ff1916831515179055565b80151582604051610cdd91906115b3565b604051908190038120907f74cc69a029cc22a209536d643ca1ab46003e98737e46a5bb7bbd80c63fc8d3d190600090a35050565b606083610d2d8160009081526004602052604090205460ff1690565b610d4a5760405163ae971eb160e01b815260040160405180910390fd5b600086815260056020908152604080832088845290915281206001018054610d71906115cf565b80601f0160208091040260200160405190810160405280929190818152602001828054610d9d906115cf565b8015610dea5780601f10610dbf57610100808354040283529160200191610dea565b820191906000526020600020905b815481529060010190602001808311610dcd57829003601f168201915b50505050509050805160001415610e145760405163b3bbfdb760e01b815260040160405180910390fd5b8415610eaf576040805160608101825282815281516020818101845260008083528184019290925283518082018552828152838501528a8252600581528382208a835281529290208151805192939192610e719284920190611136565b506020828101518051610e8a9260018501920190611136565b5060408201518051610ea6916002840191602090910190611136565b50905050610ede565b600087815260056020908152604080832089845282529091208551610edc92600290920191870190611136565b505b9695505050505050565b6002829055600381905560408051838152602081018390527f933b450400d33e3bbd0f59149b70f04705c2f0ef4c095561bceaf0bc76410485910160405180910390a15050565b610f398282610612565b6105da57610f51816001600160a01b03166014610f93565b610f5c836020610f93565b604051602001610f6d929190611638565b60408051601f198184030181529082905262461bcd60e51b82526105c791600401611463565b60606000610fa28360026116c3565b610fad9060026116e2565b67ffffffffffffffff811115610fc557610fc56111f9565b6040519080825280601f01601f191660200182016040528015610fef576020820181803683370190505b509050600360fc1b8160008151811061100a5761100a6116fa565b60200101906001600160f81b031916908160001a905350600f60fb1b81600181518110611039576110396116fa565b60200101906001600160f81b031916908160001a905350600061105d8460026116c3565b6110689060016116e2565b90505b60018111156110e0576f181899199a1a9b1b9c1cb0b131b232b360811b85600f166010811061109c5761109c6116fa565b1a60f81b8282815181106110b2576110b26116fa565b60200101906001600160f81b031916908160001a90535060049490941c936110d981611710565b905061106b565b50831561112f5760405162461bcd60e51b815260206004820181905260248201527f537472696e67733a20686578206c656e67746820696e73756666696369656e7460448201526064016105c7565b9392505050565b828054611142906115cf565b90600052602060002090601f01602090048101928261116457600085556111aa565b82601f1061117d57805160ff19168380011785556111aa565b828001600101855582156111aa579182015b828111156111aa57825182559160200191906001019061118f565b506111b69291506111ba565b5090565b5b808211156111b657600081556001016111bb565b6000602082840312156111e157600080fd5b81356001600160e01b03198116811461112f57600080fd5b634e487b7160e01b600052604160045260246000fd5b600082601f83011261122057600080fd5b813567ffffffffffffffff8082111561123b5761123b6111f9565b604051601f8301601f19908116603f01168101908282118183101715611263576112636111f9565b8160405283815286602085880101111561127c57600080fd5b836020870160208301376000602085830101528094505050505092915050565b6000806000606084860312156112b157600080fd5b83359250602084013567ffffffffffffffff808211156112d057600080fd5b6112dc8783880161120f565b935060408601359150808211156112f257600080fd5b506112ff8682870161120f565b9150509250925092565b60006020828403121561131b57600080fd5b813567ffffffffffffffff81111561133257600080fd5b61133e8482850161120f565b949350505050565b60006020828403121561135857600080fd5b5035919050565b6001600160a01b0381168114610b9357600080fd5b6000806040838503121561138757600080fd5b8235915060208301356113998161135f565b809150509250929050565b803580151581146113b457600080fd5b919050565b600080604083850312156113cc57600080fd5b823567ffffffffffffffff8111156113e357600080fd5b6113ef8582860161120f565b9250506113fe602084016113a4565b90509250929050565b60005b8381101561142257818101518382015260200161140a565b83811115611431576000848401525b50505050565b6000815180845261144f816020860160208601611407565b601f01601f19169290920160200192915050565b60208152600061112f6020830184611437565b6000806000806080858703121561148c57600080fd5b84359350602085013567ffffffffffffffff808211156114ab57600080fd5b6114b78883890161120f565b94506114c5604088016113a4565b935060608701359150808211156114db57600080fd5b506114e88782880161120f565b91505092959194509250565b6000806040838503121561150757600080fd5b50508035926020909101359150565b6000806040838503121561152957600080fd5b82359150602083013567ffffffffffffffff81111561154757600080fd5b6115538582860161120f565b9150509250929050565b6060815260006115706060830186611437565b82810360208401526115828186611437565b90508281036040840152610ede8185611437565b6000602082840312156115a857600080fd5b815161112f8161135f565b600082516115c5818460208701611407565b9190910192915050565b600181811c908216806115e357607f821691505b6020821081141561160457634e487b7160e01b600052602260045260246000fd5b50919050565b60408152600061161d6040830185611437565b828103602084015261162f8185611437565b95945050505050565b7f416363657373436f6e74726f6c3a206163636f756e7420000000000000000000815260008351611670816017850160208801611407565b7001034b99036b4b9b9b4b733903937b6329607d1b60179184019182015283516116a1816028840160208801611407565b01602801949350505050565b634e487b7160e01b600052601160045260246000fd5b60008160001904831182151516156116dd576116dd6116ad565b500290565b600082198211156116f5576116f56116ad565b500190565b634e487b7160e01b600052603260045260246000fd5b60008161171f5761171f6116ad565b50600019019056fea2646970667358221220fcfb9c8475426ef235f918d8f6057201855eecf41bd67f295c8b173577ebc93464736f6c63430008090033",
  "linkReferences": {},
  "deployedLinkReferences": {}
}